{"contracts/MemorialRegistry.sol":{"MemorialRegistry":{"abi":[{"inputs":[],"stateMutability":"nonpayable","type":"constructor"},{"inputs":[{"internalType":"address","name":"owner","type":"address"}],"name":"OwnableInvalidOwner","type":"error"},{"inputs":[{"internalType":"address","name":"account","type":"address"}],"name":"OwnableUnauthorizedAccount","type":"error"},{"anonymous":false,"inputs":[{"indexed":true,"internalType":"uint256","name":"memorialId","type":"uint256"}],"name":"MemorialLocked","type":"event"},{"anonymous":false,"inputs":[{"indexed":true,"internalType":"uint256","name":"memorialId","type":"uint256"},{"indexed":true,"internalType":"uint256","name":"version","type":"uint256"},{"indexed":false,"internalType":"bytes32","name":"contentHash","type":"bytes32"},{"indexed":false,"internalType":"string","name":"storageURI","type":"string"},{"indexed":true,"internalType":"address","name":"publisher","type":"address"},{"indexed":false,"internalType":"bool","name":"locked","type":"bool"}],"name":"MemorialPublished","type":"event"},{"anonymous":false,"inputs":[{"indexed":true,"internalType":"address","name":"previousOwner","type":"address"},{"indexed":true,"internalType":"address","name":"newOwner","type":"address"}],"name":"OwnershipTransferred","type":"event"},{"inputs":[{"internalType":"uint256","name":"memorialId","type":"uint256"},{"internalType":"bytes32","name":"newContentHash","type":"bytes32"},{"internalType":"string","name":"newStorageURI","type":"string"}],"name":"appendVersion","outputs":[{"internalType":"uint256","name":"version","type":"uint256"}],"stateMutability":"nonpayable","type":"function"},{"inputs":[{"internalType":"uint256","name":"memorialId","type":"uint256"},{"internalType":"uint256","name":"version","type":"uint256"}],"name":"getVersion","outputs":[{"components":[{"internalType":"bytes32","name":"contentHash","type":"bytes32"},{"internalType":"string","name":"storageURI","type":"string"},{"internalType":"address","name":"publisher","type":"address"},{"internalType":"uint64","name":"timestamp","type":"uint64"},{"internalType":"bool","name":"locked","type":"bool"}],"internalType":"struct MemorialRegistry.Record","name":"","type":"tuple"}],"stateMutability":"view","type":"function"},{"inputs":[{"internalType":"uint256","name":"memorialId","type":"uint256"}],"name":"latest","outputs":[{"components":[{"internalType":"bytes32","name":"contentHash","type":"bytes32"},{"internalType":"string","name":"storageURI","type":"string"},{"internalType":"address","name":"publisher","type":"address"},{"internalType":"uint64","name":"timestamp","type":"uint64"},{"internalType":"bool","name":"locked","type":"bool"}],"internalType":"struct MemorialRegistry.Record","name":"","type":"tuple"}],"stateMutability":"view","type":"function"},{"inputs":[{"internalType":"uint256","name":"memorialId","type":"uint256"}],"name":"lock","outputs":[],"stateMutability":"nonpayable","type":"function"},{"inputs":[],"name":"nextMemorialId","outputs":[{"internalType":"uint256","name":"","type":"uint256"}],"stateMutability":"view","type":"function"},{"inputs":[],"name":"owner","outputs":[{"internalType":"address","name":"","type":"address"}],"stateMutability":"view","type":"function"},{"inputs":[{"internalType":"bytes32","name":"contentHash","type":"bytes32"},{"internalType":"string","name":"storageURI","type":"string"},{"internalType":"bool","name":"lockImmediately","type":"bool"}],"name":"publish","outputs":[{"internalType":"uint256","name":"memorialId","type":"uint256"},{"internalType":"uint256","name":"version","type":"uint256"}],"stateMutability":"nonpayable","type":"function"},{"inputs":[],"name":"renounceOwnership","outputs":[],"stateMutability":"nonpayable","type":"function"},{"inputs":[{"internalType":"address","name":"newOwner","type":"address"}],"name":"transferOwnership","outputs":[],"stateMutability":"nonpayable","type":"function"},{"inputs":[{"internalType":"uint256","name":"memorialId","type":"uint256"}],"name":"versionCount","outputs":[{"internalType":"uint256","name":"","type":"uint256"}],"stateMutability":"view","type":"function"}],"evm":{"bytecode":{"linkReferences":{},"object":"608060405260016002553480156200001657600080fd5b5033600073ffffffffffffffffffffffffffffffffffffffff168173ffffffffffffffffffffffffffffffffffffffff16036200008d5760006040517f1e4fbdf7000000000000000000000000000000000000000000000000000000008152600401620000849190620001ae565b60405180910390fd5b6200009e81620000a560201b60201c565b50620001cb565b60008060009054906101000a900473ffffffffffffffffffffffffffffffffffffffff169050816000806101000a81548173ffffffffffffffffffffffffffffffffffffffff021916908373ffffffffffffffffffffffffffffffffffffffff1602179055508173ffffffffffffffffffffffffffffffffffffffff168173ffffffffffffffffffffffffffffffffffffffff167f8be0079c531659141344cd1fd0a4f28419497f9722a3daafe3b4186f6b6457e060405160405180910390a35050565b600073ffffffffffffffffffffffffffffffffffffffff82169050919050565b6000620001968262000169565b9050919050565b620001a88162000189565b82525050565b6000602082019050620001c560008301846200019d565b92915050565b61204680620001db6000396000f3fe608060405234801561001057600080fd5b506004361061009d5760003560e01c80636987b075116100665780636987b07514610181578063715018a6146101b15780638da5cb5b146101bb578063dd467064146101d9578063f2fde38b146101f55761009d565b806207f4a0146100a257806303190e6d146100d257806318d852d8146101025780634a53815514610120578063641e8df314610150575b600080fd5b6100bc60048036038101906100b791906113e2565b610211565b6040516100c991906115ad565b60405180910390f35b6100ec60048036038101906100e791906113e2565b610419565b6040516100f991906115de565b60405180910390f35b61010a610494565b60405161011791906115de565b60405180910390f35b61013a6004803603810190610135919061168a565b61049a565b60405161014791906115de565b60405180910390f35b61016a6004803603810190610165919061172a565b610a13565b60405161017892919061179e565b60405180910390f35b61019b600480360381019061019691906117c7565b610cd6565b6040516101a891906115ad565b60405180910390f35b6101b9610f16565b005b6101c3610f2a565b6040516101d09190611816565b60405180910390f35b6101f360048036038101906101ee91906113e2565b610f53565b005b61020f600480360381019061020a919061185d565b611175565b005b61021961134e565b816000600160008381526020019081526020016000208054905011610273576040517f08c379a000000000000000000000000000000000000000000000000000000000815260040161026a906118e7565b60405180910390fd5b600160008481526020019081526020016000206001806000868152602001908152602001600020805490506102a89190611936565b815481106102b9576102b861196a565b5b90600052602060002090600302016040518060a0016040529081600082015481526020016001820180546102ec906119c8565b80601f0160208091040260200160405190810160405280929190818152602001828054610318906119c8565b80156103655780601f1061033a57610100808354040283529160200191610365565b820191906000526020600020905b81548152906001019060200180831161034857829003601f168201915b505050505081526020016002820160009054906101000a900473ffffffffffffffffffffffffffffffffffffffff1673ffffffffffffffffffffffffffffffffffffffff1673ffffffffffffffffffffffffffffffffffffffff1681526020016002820160149054906101000a900467ffffffffffffffff1667ffffffffffffffff1667ffffffffffffffff16815260200160028201601c9054906101000a900460ff161515151581525050915050919050565b6000816000600160008381526020019081526020016000208054905011610475576040517f08c379a000000000000000000000000000000000000000000000000000000000815260040161046c906118e7565b60405180910390fd5b6001600084815260200190815260200160002080549050915050919050565b60025481565b60008460006001600083815260200190815260200160002080549050116104f6576040517f08c379a00000000000000000000000000000000000000000000000000000000081526004016104ed906118e7565b60405180910390fd5b60006001600088815260200190815260200160002060018060008a81526020019081526020016000208054905061052d9190611936565b8154811061053e5761053d61196a565b5b90600052602060002090600302016040518060a001604052908160008201548152602001600182018054610571906119c8565b80601f016020809104026020016040519081016040528092919081815260200182805461059d906119c8565b80156105ea5780601f106105bf576101008083540402835291602001916105ea565b820191906000526020600020905b8154815290600101906020018083116105cd57829003601f168201915b505050505081526020016002820160009054906101000a900473ffffffffffffffffffffffffffffffffffffffff1673ffffffffffffffffffffffffffffffffffffffff1673ffffffffffffffffffffffffffffffffffffffff1681526020016002820160149054906101000a900467ffffffffffffffff1667ffffffffffffffff1667ffffffffffffffff16815260200160028201601c9054906101000a900460ff16151515158152505090508060800151156106dd576040517f08c379a00000000000000000000000000000000000000000000000000000000081526004016106d490611a45565b60405180910390fd5b806040015173ffffffffffffffffffffffffffffffffffffffff163373ffffffffffffffffffffffffffffffffffffffff16148061074d575061071e610f2a565b73ffffffffffffffffffffffffffffffffffffffff163373ffffffffffffffffffffffffffffffffffffffff16145b61078c576040517f08c379a000000000000000000000000000000000000000000000000000000000815260040161078390611ab1565b60405180910390fd5b6000801b86036107d1576040517f08c379a00000000000000000000000000000000000000000000000000000000081526004016107c890611b1d565b60405180910390fd5b60008585905011610817576040517f08c379a000000000000000000000000000000000000000000000000000000000815260040161080e90611b89565b60405180910390fd5b60016000888152602001908152602001600020805490509250600160008881526020019081526020016000206040518060a0016040528088815260200187878080601f016020809104026020016040519081016040528093929190818152602001838380828437600081840152601f19601f8201169050808301925050505050505081526020013373ffffffffffffffffffffffffffffffffffffffff1681526020014267ffffffffffffffff1681526020016000151581525090806001815401808255809150506001900390600052602060002090600302016000909190919091506000820151816000015560208201518160010190816109199190611d84565b5060408201518160020160006101000a81548173ffffffffffffffffffffffffffffffffffffffff021916908373ffffffffffffffffffffffffffffffffffffffff16021790555060608201518160020160146101000a81548167ffffffffffffffff021916908367ffffffffffffffff160217905550608082015181600201601c6101000a81548160ff02191690831515021790555050503373ffffffffffffffffffffffffffffffffffffffff1683887fd77fe84d4f2a61fe0f7d451ae99d1eab022f54872f6dc94df8a39f425d574fcd8989896000604051610a019493929190611eb0565b60405180910390a45050949350505050565b6000806000801b8603610a5b576040517f08c379a0000000000000000000000000000000000000000000000000000000008152600401610a5290611b1d565b60405180910390fd5b60008585905011610aa1576040517f08c379a0000000000000000000000000000000000000000000000000000000008152600401610a9890611b89565b60405180910390fd5b60026000815480929190610ab490611ef0565b919050559150600160008381526020019081526020016000206040518060a0016040528088815260200187878080601f016020809104026020016040519081016040528093929190818152602001838380828437600081840152601f19601f8201169050808301925050505050505081526020013373ffffffffffffffffffffffffffffffffffffffff1681526020014267ffffffffffffffff1681526020018515158152509080600181540180825580915050600190039060005260206000209060030201600090919091909150600082015181600001556020820151816001019081610ba29190611d84565b5060408201518160020160006101000a81548173ffffffffffffffffffffffffffffffffffffffff021916908373ffffffffffffffffffffffffffffffffffffffff16021790555060608201518160020160146101000a81548167ffffffffffffffff021916908367ffffffffffffffff160217905550608082015181600201601c6101000a81548160ff02191690831515021790555050503373ffffffffffffffffffffffffffffffffffffffff166000837fd77fe84d4f2a61fe0f7d451ae99d1eab022f54872f6dc94df8a39f425d574fcd89898989604051610c8a9493929190611eb0565b60405180910390a48215610cc657817ffd295620abd5998c47c7096c65bf6d4a3d7b026de9bcc55154df280a7976e17360405160405180910390a25b8160009150915094509492505050565b610cde61134e565b826000600160008381526020019081526020016000208054905011610d38576040517f08c379a0000000000000000000000000000000000000000000000000000000008152600401610d2f906118e7565b60405180910390fd5b60016000858152602001908152602001600020805490508310610d90576040517f08c379a0000000000000000000000000000000000000000000000000000000008152600401610d8790611f84565b60405180910390fd5b600160008581526020019081526020016000208381548110610db557610db461196a565b5b90600052602060002090600302016040518060a001604052908160008201548152602001600182018054610de8906119c8565b80601f0160208091040260200160405190810160405280929190818152602001828054610e14906119c8565b8015610e615780601f10610e3657610100808354040283529160200191610e61565b820191906000526020600020905b815481529060010190602001808311610e4457829003601f168201915b505050505081526020016002820160009054906101000a900473ffffffffffffffffffffffffffffffffffffffff1673ffffffffffffffffffffffffffffffffffffffff1673ffffffffffffffffffffffffffffffffffffffff1681526020016002820160149054906101000a900467ffffffffffffffff1667ffffffffffffffff1667ffffffffffffffff16815260200160028201601c9054906101000a900460ff16151515158152505091505092915050565b610f1e6111fb565b610f286000611282565b565b60008060009054906101000a900473ffffffffffffffffffffffffffffffffffffffff16905090565b806000600160008381526020019081526020016000208054905011610fad576040517f08c379a0000000000000000000000000000000000000000000000000000000008152600401610fa4906118e7565b60405180910390fd5b600060016000848152602001908152602001600020600180600086815260200190815260200160002080549050610fe49190611936565b81548110610ff557610ff461196a565b5b9060005260206000209060030201905080600201601c9054906101000a900460ff1615611057576040517f08c379a000000000000000000000000000000000000000000000000000000000815260040161104e90611ff0565b60405180910390fd5b8060020160009054906101000a900473ffffffffffffffffffffffffffffffffffffffff1673ffffffffffffffffffffffffffffffffffffffff163373ffffffffffffffffffffffffffffffffffffffff1614806110e757506110b8610f2a565b73ffffffffffffffffffffffffffffffffffffffff163373ffffffffffffffffffffffffffffffffffffffff16145b611126576040517f08c379a000000000000000000000000000000000000000000000000000000000815260040161111d90611ab1565b60405180910390fd5b600181600201601c6101000a81548160ff021916908315150217905550827ffd295620abd5998c47c7096c65bf6d4a3d7b026de9bcc55154df280a7976e17360405160405180910390a2505050565b61117d6111fb565b600073ffffffffffffffffffffffffffffffffffffffff168173ffffffffffffffffffffffffffffffffffffffff16036111ef5760006040517f1e4fbdf70000000000000000000000000000000000000000000000000000000081526004016111e69190611816565b60405180910390fd5b6111f881611282565b50565b611203611346565b73ffffffffffffffffffffffffffffffffffffffff16611221610f2a565b73ffffffffffffffffffffffffffffffffffffffff161461128057611244611346565b6040517f118cdaa70000000000000000000000000000000000000000000000000000000081526004016112779190611816565b60405180910390fd5b565b60008060009054906101000a900473ffffffffffffffffffffffffffffffffffffffff169050816000806101000a81548173ffffffffffffffffffffffffffffffffffffffff021916908373ffffffffffffffffffffffffffffffffffffffff1602179055508173ffffffffffffffffffffffffffffffffffffffff168173ffffffffffffffffffffffffffffffffffffffff167f8be0079c531659141344cd1fd0a4f28419497f9722a3daafe3b4186f6b6457e060405160405180910390a35050565b600033905090565b6040518060a001604052806000801916815260200160608152602001600073ffffffffffffffffffffffffffffffffffffffff168152602001600067ffffffffffffffff1681526020016000151581525090565b600080fd5b600080fd5b6000819050919050565b6113bf816113ac565b81146113ca57600080fd5b50565b6000813590506113dc816113b6565b92915050565b6000602082840312156113f8576113f76113a2565b5b6000611406848285016113cd565b91505092915050565b6000819050919050565b6114228161140f565b82525050565b600081519050919050565b600082825260208201905092915050565b60005b83811015611462578082015181840152602081019050611447565b60008484015250505050565b6000601f19601f8301169050919050565b600061148a82611428565b6114948185611433565b93506114a4818560208601611444565b6114ad8161146e565b840191505092915050565b600073ffffffffffffffffffffffffffffffffffffffff82169050919050565b60006114e3826114b8565b9050919050565b6114f3816114d8565b82525050565b600067ffffffffffffffff82169050919050565b611516816114f9565b82525050565b60008115159050919050565b6115318161151c565b82525050565b600060a08301600083015161154f6000860182611419565b5060208301518482036020860152611567828261147f565b915050604083015161157c60408601826114ea565b50606083015161158f606086018261150d565b5060808301516115a26080860182611528565b508091505092915050565b600060208201905081810360008301526115c78184611537565b905092915050565b6115d8816113ac565b82525050565b60006020820190506115f360008301846115cf565b92915050565b6116028161140f565b811461160d57600080fd5b50565b60008135905061161f816115f9565b92915050565b600080fd5b600080fd5b600080fd5b60008083601f84011261164a57611649611625565b5b8235905067ffffffffffffffff8111156116675761166661162a565b5b6020830191508360018202830111156116835761168261162f565b5b9250929050565b600080600080606085870312156116a4576116a36113a2565b5b60006116b2878288016113cd565b94505060206116c387828801611610565b935050604085013567ffffffffffffffff8111156116e4576116e36113a7565b5b6116f087828801611634565b925092505092959194509250565b6117078161151c565b811461171257600080fd5b50565b600081359050611724816116fe565b92915050565b60008060008060608587031215611744576117436113a2565b5b600061175287828801611610565b945050602085013567ffffffffffffffff811115611773576117726113a7565b5b61177f87828801611634565b9350935050604061179287828801611715565b91505092959194509250565b60006040820190506117b360008301856115cf565b6117c060208301846115cf565b9392505050565b600080604083850312156117de576117dd6113a2565b5b60006117ec858286016113cd565b92505060206117fd858286016113cd565b9150509250929050565b611810816114d8565b82525050565b600060208201905061182b6000830184611807565b92915050565b61183a816114d8565b811461184557600080fd5b50565b60008135905061185781611831565b92915050565b600060208284031215611873576118726113a2565b5b600061188184828501611848565b91505092915050565b600082825260208201905092915050565b7f4d656d6f7269616c3a206e6f7420666f756e6400000000000000000000000000600082015250565b60006118d160138361188a565b91506118dc8261189b565b602082019050919050565b60006020820190508181036000830152611900816118c4565b9050919050565b7f4e487b7100000000000000000000000000000000000000000000000000000000600052601160045260246000fd5b6000611941826113ac565b915061194c836113ac565b925082820390508181111561196457611963611907565b5b92915050565b7f4e487b7100000000000000000000000000000000000000000000000000000000600052603260045260246000fd5b7f4e487b7100000000000000000000000000000000000000000000000000000000600052602260045260246000fd5b600060028204905060018216806119e057607f821691505b6020821081036119f3576119f2611999565b5b50919050565b7f4d656d6f7269616c206973206c6f636b65640000000000000000000000000000600082015250565b6000611a2f60128361188a565b9150611a3a826119f9565b602082019050919050565b60006020820190508181036000830152611a5e81611a22565b9050919050565b7f4e6f7420617574686f72697a6564000000000000000000000000000000000000600082015250565b6000611a9b600e8361188a565b9150611aa682611a65565b602082019050919050565b60006020820190508181036000830152611aca81611a8e565b9050919050565b7f496e76616c696420686173680000000000000000000000000000000000000000600082015250565b6000611b07600c8361188a565b9150611b1282611ad1565b602082019050919050565b60006020820190508181036000830152611b3681611afa565b9050919050565b7f496e76616c696420555249000000000000000000000000000000000000000000600082015250565b6000611b73600b8361188a565b9150611b7e82611b3d565b602082019050919050565b60006020820190508181036000830152611ba281611b66565b9050919050565b7f4e487b7100000000000000000000000000000000000000000000000000000000600052604160045260246000fd5b60008190508160005260206000209050919050565b60006020601f8301049050919050565b600082821b905092915050565b600060088302611c3a7fffffffffffffffffffffffffffffffffffffffffffffffffffffffffffffffff82611bfd565b611c448683611bfd565b95508019841693508086168417925050509392505050565b6000819050919050565b6000611c81611c7c611c77846113ac565b611c5c565b6113ac565b9050919050565b6000819050919050565b611c9b83611c66565b611caf611ca782611c88565b848454611c0a565b825550505050565b600090565b611cc4611cb7565b611ccf818484611c92565b505050565b5b81811015611cf357611ce8600082611cbc565b600181019050611cd5565b5050565b601f821115611d3857611d0981611bd8565b611d1284611bed565b81016020851015611d21578190505b611d35611d2d85611bed565b830182611cd4565b50505b505050565b600082821c905092915050565b6000611d5b60001984600802611d3d565b1980831691505092915050565b6000611d748383611d4a565b9150826002028217905092915050565b611d8d82611428565b67ffffffffffffffff811115611da657611da5611ba9565b5b611db082546119c8565b611dbb828285611cf7565b600060209050601f831160018114611dee5760008415611ddc578287015190505b611de68582611d68565b865550611e4e565b601f198416611dfc86611bd8565b60005b82811015611e2457848901518255600182019150602085019450602081019050611dff565b86831015611e415784890151611e3d601f891682611d4a565b8355505b6001600288020188555050505b505050505050565b611e5f8161140f565b82525050565b82818337600083830152505050565b6000611e80838561188a565b9350611e8d838584611e65565b611e968361146e565b840190509392505050565b611eaa8161151c565b82525050565b6000606082019050611ec56000830187611e56565b8181036020830152611ed8818587611e74565b9050611ee76040830184611ea1565b95945050505050565b6000611efb826113ac565b91507fffffffffffffffffffffffffffffffffffffffffffffffffffffffffffffffff8203611f2d57611f2c611907565b5b600182019050919050565b7f4261642076657273696f6e000000000000000000000000000000000000000000600082015250565b6000611f6e600b8361188a565b9150611f7982611f38565b602082019050919050565b60006020820190508181036000830152611f9d81611f61565b9050919050565b7f416c7265616479206c6f636b6564000000000000000000000000000000000000600082015250565b6000611fda600e8361188a565b9150611fe582611fa4565b602082019050919050565b6000602082019050818103600083015261200981611fcd565b905091905056fea264697066735822122024f8f34ddc65a333c673f695b72316c70ee5619633b5a31b46a7ea09748c986664736f6c63430008140033","opcodes":"PUSH1 0x80 PUSH1 0x40 MSTORE PUSH1 0x1 PUSH1 0x2 SSTORE CALLVALUE DUP1 ISZERO PUSH3 0x16 JUMPI PUSH1 0x0 DUP1 REVERT JUMPDEST POP CALLER PUSH1 0x0 PUSH20 0xFFFFFFFFFFFFFFFFFFFFFFFFFFFFFFFFFFFFFFFF AND DUP2 PUSH20 0xFFFFFFFFFFFFFFFFFFFFFFFFFFFFFFFFFFFFFFFF AND SUB PUSH3 0x8D JUMPI PUSH1 0x0 PUSH1 0x40 MLOAD PUSH32 0x1E4FBDF700000000000000000000000000000000000000000000000000000000 DUP2 MSTORE PUSH1 0x4 ADD PUSH3 0x84 SWAP2 SWAP1 PUSH3 0x1AE JUMP JUMPDEST PUSH1 0x40 MLOAD DUP1 SWAP2 SUB SWAP1 REVERT JUMPDEST PUSH3 0x9E DUP2 PUSH3 0xA5 PUSH1 0x20 SHL PUSH1 0x20 SHR JUMP JUMPDEST POP PUSH3 0x1CB JUMP JUMPDEST PUSH1 0x0 DUP1 PUSH1 0x0 SWAP1 SLOAD SWAP1 PUSH2 0x100 EXP SWAP1 DIV PUSH20 0xFFFFFFFFFFFFFFFFFFFFFFFFFFFFFFFFFFFFFFFF AND SWAP1 POP DUP2 PUSH1 0x0 DUP1 PUSH2 0x100 EXP DUP2 SLOAD DUP2 PUSH20 0xFFFFFFFFFFFFFFFFFFFFFFFFFFFFFFFFFFFFFFFF MUL NOT AND SWAP1 DUP4 PUSH20 0xFFFFFFFFFFFFFFFFFFFFFFFFFFFFFFFFFFFFFFFF AND MUL OR SWAP1 SSTORE POP DUP2 PUSH20 0xFFFFFFFFFFFFFFFFFFFFFFFFFFFFFFFFFFFFFFFF AND DUP2 PUSH20 0xFFFFFFFFFFFFFFFFFFFFFFFFFFFFFFFFFFFFFFFF AND PUSH32 0x8BE0079C531659141344CD1FD0A4F28419497F9722A3DAAFE3B4186F6B6457E0 PUSH1 0x40 MLOAD PUSH1 0x40 MLOAD DUP1 SWAP2 SUB SWAP1 LOG3 POP POP JUMP JUMPDEST PUSH1 0x0 PUSH20 0xFFFFFFFFFFFFFFFFFFFFFFFFFFFFFFFFFFFFFFFF DUP3 AND SWAP1 POP SWAP2 SWAP1 POP JUMP JUMPDEST PUSH1 0x0 PUSH3 0x196 DUP3 PUSH3 0x169 JUMP JUMPDEST SWAP1 POP SWAP2 SWAP1 POP JUMP JUMPDEST PUSH3 0x1A8 DUP2 PUSH3 0x189 JUMP JUMPDEST DUP3 MSTORE POP POP JUMP JUMPDEST PUSH1 0x0 PUSH1 0x20 DUP3 ADD SWAP1 POP PUSH3 0x1C5 PUSH1 0x0 DUP4 ADD DUP5 PUSH3 0x19D JUMP JUMPDEST SWAP3 SWAP2 POP POP JUMP JUMPDEST PUSH2 0x2046 DUP1 PUSH3 0x1DB PUSH1 0x0 CODECOPY PUSH1 0x0 RETURN INVALID PUSH1 0x80 PUSH1 0x40 MSTORE CALLVALUE DUP1 ISZERO PUSH2 0x10 JUMPI PUSH1 0x0 DUP1 REVERT JUMPDEST POP PUSH1 0x4 CALLDATASIZE LT PUSH2 0x9D JUMPI PUSH1 0x0 CALLDATALOAD PUSH1 0xE0 SHR DUP1 PUSH4 0x6987B075 GT PUSH2 0x66 JUMPI DUP1 PUSH4 0x6987B075 EQ PUSH2 0x181 JUMPI DUP1 PUSH4 0x715018A6 EQ PUSH2 0x1B1 JUMPI DUP1 PUSH4 0x8DA5CB5B EQ PUSH2 0x1BB JUMPI DUP1 PUSH4 0xDD467064 EQ PUSH2 0x1D9 JUMPI DUP1 PUSH4 0xF2FDE38B EQ PUSH2 0x1F5 JUMPI PUSH2 0x9D JUMP JUMPDEST DUP1 PUSH3 0x7F4A0 EQ PUSH2 0xA2 JUMPI DUP1 PUSH4 0x3190E6D EQ PUSH2 0xD2 JUMPI DUP1 PUSH4 0x18D852D8 EQ PUSH2 0x102 JUMPI DUP1 PUSH4 0x4A538155 EQ PUSH2 0x120 JUMPI DUP1 PUSH4 0x641E8DF3 EQ PUSH2 0x150 JUMPI JUMPDEST PUSH1 0x0 DUP1 REVERT JUMPDEST PUSH2 0xBC PUSH1 0x4 DUP1 CALLDATASIZE SUB DUP2 ADD SWAP1 PUSH2 0xB7 SWAP2 SWAP1 PUSH2 0x13E2 JUMP JUMPDEST PUSH2 0x211 JUMP JUMPDEST PUSH1 0x40 MLOAD PUSH2 0xC9 SWAP2 SWAP1 PUSH2 0x15AD JUMP JUMPDEST PUSH1 0x40 MLOAD DUP1 SWAP2 SUB SWAP1 RETURN JUMPDEST PUSH2 0xEC PUSH1 0x4 DUP1 CALLDATASIZE SUB DUP2 ADD SWAP1 PUSH2 0xE7 SWAP2 SWAP1 PUSH2 0x13E2 JUMP JUMPDEST PUSH2 0x419 JUMP JUMPDEST PUSH1 0x40 MLOAD PUSH2 0xF9 SWAP2 SWAP1 PUSH2 0x15DE JUMP JUMPDEST PUSH1 0x40 MLOAD DUP1 SWAP2 SUB SWAP1 RETURN JUMPDEST PUSH2 0x10A PUSH2 0x494 JUMP JUMPDEST PUSH1 0x40 MLOAD PUSH2 0x117 SWAP2 SWAP1 PUSH2 0x15DE JUMP JUMPDEST PUSH1 0x40 MLOAD DUP1 SWAP2 SUB SWAP1 RETURN JUMPDEST PUSH2 0x13A PUSH1 0x4 DUP1 CALLDATASIZE SUB DUP2 ADD SWAP1 PUSH2 0x135 SWAP2 SWAP1 PUSH2 0x168A JUMP JUMPDEST PUSH2 0x49A JUMP JUMPDEST PUSH1 0x40 MLOAD PUSH2 0x147 SWAP2 SWAP1 PUSH2 0x15DE JUMP JUMPDEST PUSH1 0x40 MLOAD DUP1 SWAP2 SUB SWAP1 RETURN JUMPDEST PUSH2 0x16A PUSH1 0x4 DUP1 CALLDATASIZE SUB DUP2 ADD SWAP1 PUSH2 0x165 SWAP2 SWAP1 PUSH2 0x172A JUMP JUMPDEST PUSH2 0xA13 JUMP JUMPDEST PUSH1 0x40 MLOAD PUSH2 0x178 SWAP3 SWAP2 SWAP1 PUSH2 0x179E JUMP JUMPDEST PUSH1 0x40 MLOAD DUP1 SWAP2 SUB SWAP1 RETURN JUMPDEST PUSH2 0x19B PUSH1 0x4 DUP1 CALLDATASIZE SUB DUP2 ADD SWAP1 PUSH2 0x196 SWAP2 SWAP1 PUSH2 0x17C7 JUMP JUMPDEST PUSH2 0xCD6 JUMP JUMPDEST PUSH1 0x40 MLOAD PUSH2 0x1A8 SWAP2 SWAP1 PUSH2 0x15AD JUMP JUMPDEST PUSH1 0x40 MLOAD DUP1 SWAP2 SUB SWAP1 RETURN JUMPDEST PUSH2 0x1B9 PUSH2 0xF16 JUMP JUMPDEST STOP JUMPDEST PUSH2 0x1C3 PUSH2 0xF2A JUMP JUMPDEST PUSH1 0x40 MLOAD PUSH2 0x1D0 SWAP2 SWAP1 PUSH2 0x1816 JUMP JUMPDEST PUSH1 0x40 MLOAD DUP1 SWAP2 SUB SWAP1 RETURN JUMPDEST PUSH2 0x1F3 PUSH1 0x4 DUP1 CALLDATASIZE SUB DUP2 ADD SWAP1 PUSH2 0x1EE SWAP2 SWAP1 PUSH2 0x13E2 JUMP JUMPDEST PUSH2 0xF53 JUMP JUMPDEST STOP JUMPDEST PUSH2 0x20F PUSH1 0x4 DUP1 CALLDATASIZE SUB DUP2 ADD SWAP1 PUSH2 0x20A SWAP2 SWAP1 PUSH2 0x185D JUMP JUMPDEST PUSH2 0x1175 JUMP JUMPDEST STOP JUMPDEST PUSH2 0x219 PUSH2 0x134E JUMP JUMPDEST DUP2 PUSH1 0x0 PUSH1 0x1 PUSH1 0x0 DUP4 DUP2 MSTORE PUSH1 0x20 ADD SWAP1 DUP2 MSTORE PUSH1 0x20 ADD PUSH1 0x0 KECCAK256 DUP1 SLOAD SWAP1 POP GT PUSH2 0x273 JUMPI PUSH1 0x40 MLOAD PUSH32 0x8C379A000000000000000000000000000000000000000000000000000000000 DUP2 MSTORE PUSH1 0x4 ADD PUSH2 0x26A SWAP1 PUSH2 0x18E7 JUMP JUMPDEST PUSH1 0x40 MLOAD DUP1 SWAP2 SUB SWAP1 REVERT JUMPDEST PUSH1 0x1 PUSH1 0x0 DUP5 DUP2 MSTORE PUSH1 0x20 ADD SWAP1 DUP2 MSTORE PUSH1 0x20 ADD PUSH1 0x0 KECCAK256 PUSH1 0x1 DUP1 PUSH1 0x0 DUP7 DUP2 MSTORE PUSH1 0x20 ADD SWAP1 DUP2 MSTORE PUSH1 0x20 ADD PUSH1 0x0 KECCAK256 DUP1 SLOAD SWAP1 POP PUSH2 0x2A8 SWAP2 SWAP1 PUSH2 0x1936 JUMP JUMPDEST DUP2 SLOAD DUP2 LT PUSH2 0x2B9 JUMPI PUSH2 0x2B8 PUSH2 0x196A JUMP JUMPDEST JUMPDEST SWAP1 PUSH1 0x0 MSTORE PUSH1 0x20 PUSH1 0x0 KECCAK256 SWAP1 PUSH1 0x3 MUL ADD PUSH1 0x40 MLOAD DUP1 PUSH1 0xA0 ADD PUSH1 0x40 MSTORE SWAP1 DUP2 PUSH1 0x0 DUP3 ADD SLOAD DUP2 MSTORE PUSH1 0x20 ADD PUSH1 0x1 DUP3 ADD DUP1 SLOAD PUSH2 0x2EC SWAP1 PUSH2 0x19C8 JUMP JUMPDEST DUP1 PUSH1 0x1F ADD PUSH1 0x20 DUP1 SWAP2 DIV MUL PUSH1 0x20 ADD PUSH1 0x40 MLOAD SWAP1 DUP2 ADD PUSH1 0x40 MSTORE DUP1 SWAP3 SWAP2 SWAP1 DUP2 DUP2 MSTORE PUSH1 0x20 ADD DUP3 DUP1 SLOAD PUSH2 0x318 SWAP1 PUSH2 0x19C8 JUMP JUMPDEST DUP1 ISZERO PUSH2 0x365 JUMPI DUP1 PUSH1 0x1F LT PUSH2 0x33A JUMPI PUSH2 0x100 DUP1 DUP4 SLOAD DIV MUL DUP4 MSTORE SWAP2 PUSH1 0x20 ADD SWAP2 PUSH2 0x365 JUMP JUMPDEST DUP3 ADD SWAP2 SWAP1 PUSH1 0x0 MSTORE PUSH1 0x20 PUSH1 0x0 KECCAK256 SWAP1 JUMPDEST DUP2 SLOAD DUP2 MSTORE SWAP1 PUSH1 0x1 ADD SWAP1 PUSH1 0x20 ADD DUP1 DUP4 GT PUSH2 0x348 JUMPI DUP3 SWAP1 SUB PUSH1 0x1F AND DUP3 ADD SWAP2 JUMPDEST POP POP POP POP POP DUP2 MSTORE PUSH1 0x20 ADD PUSH1 0x2 DUP3 ADD PUSH1 0x0 SWAP1 SLOAD SWAP1 PUSH2 0x100 EXP SWAP1 DIV PUSH20 0xFFFFFFFFFFFFFFFFFFFFFFFFFFFFFFFFFFFFFFFF AND PUSH20 0xFFFFFFFFFFFFFFFFFFFFFFFFFFFFFFFFFFFFFFFF AND PUSH20 0xFFFFFFFFFFFFFFFFFFFFFFFFFFFFFFFFFFFFFFFF AND DUP2 MSTORE PUSH1 0x20 ADD PUSH1 0x2 DUP3 ADD PUSH1 0x14 SWAP1 SLOAD SWAP1 PUSH2 0x100 EXP SWAP1 DIV PUSH8 0xFFFFFFFFFFFFFFFF AND PUSH8 0xFFFFFFFFFFFFFFFF AND PUSH8 0xFFFFFFFFFFFFFFFF AND DUP2 MSTORE PUSH1 0x20 ADD PUSH1 0x2 DUP3 ADD PUSH1 0x1C SWAP1 SLOAD SWAP1 PUSH2 0x100 EXP SWAP1 DIV PUSH1 0xFF AND ISZERO ISZERO ISZERO ISZERO DUP2 MSTORE POP POP SWAP2 POP POP SWAP2 SWAP1 POP JUMP JUMPDEST PUSH1 0x0 DUP2 PUSH1 0x0 PUSH1 0x1 PUSH1 0x0 DUP4 DUP2 MSTORE PUSH1 0x20 ADD SWAP1 DUP2 MSTORE PUSH1 0x20 ADD PUSH1 0x0 KECCAK256 DUP1 SLOAD SWAP1 POP GT PUSH2 0x475 JUMPI PUSH1 0x40 MLOAD PUSH32 0x8C379A000000000000000000000000000000000000000000000000000000000 DUP2 MSTORE PUSH1 0x4 ADD PUSH2 0x46C SWAP1 PUSH2 0x18E7 JUMP JUMPDEST PUSH1 0x40 MLOAD DUP1 SWAP2 SUB SWAP1 REVERT JUMPDEST PUSH1 0x1 PUSH1 0x0 DUP5 DUP2 MSTORE PUSH1 0x20 ADD SWAP1 DUP2 MSTORE PUSH1 0x20 ADD PUSH1 0x0 KECCAK256 DUP1 SLOAD SWAP1 POP SWAP2 POP POP SWAP2 SWAP1 POP JUMP JUMPDEST PUSH1 0x2 SLOAD DUP2 JUMP JUMPDEST PUSH1 0x0 DUP5 PUSH1 0x0 PUSH1 0x1 PUSH1 0x0 DUP4 DUP2 MSTORE PUSH1 0x20 ADD SWAP1 DUP2 MSTORE PUSH1 0x20 ADD PUSH1 0x0 KECCAK256 DUP1 SLOAD SWAP1 POP GT PUSH2 0x4F6 JUMPI PUSH1 0x40 MLOAD PUSH32 0x8C379A000000000000000000000000000000000000000000000000000000000 DUP2 MSTORE PUSH1 0x4 ADD PUSH2 0x4ED SWAP1 PUSH2 0x18E7 JUMP JUMPDEST PUSH1 0x40 MLOAD DUP1 SWAP2 SUB SWAP1 REVERT JUMPDEST PUSH1 0x0 PUSH1 0x1 PUSH1 0x0 DUP9 DUP2 MSTORE PUSH1 0x20 ADD SWAP1 DUP2 MSTORE PUSH1 0x20 ADD PUSH1 0x0 KECCAK256 PUSH1 0x1 DUP1 PUSH1 0x0 DUP11 DUP2 MSTORE PUSH1 0x20 ADD SWAP1 DUP2 MSTORE PUSH1 0x20 ADD PUSH1 0x0 KECCAK256 DUP1 SLOAD SWAP1 POP PUSH2 0x52D SWAP2 SWAP1 PUSH2 0x1936 JUMP JUMPDEST DUP2 SLOAD DUP2 LT PUSH2 0x53E JUMPI PUSH2 0x53D PUSH2 0x196A JUMP JUMPDEST JUMPDEST SWAP1 PUSH1 0x0 MSTORE PUSH1 0x20 PUSH1 0x0 KECCAK256 SWAP1 PUSH1 0x3 MUL ADD PUSH1 0x40 MLOAD DUP1 PUSH1 0xA0 ADD PUSH1 0x40 MSTORE SWAP1 DUP2 PUSH1 0x0 DUP3 ADD SLOAD DUP2 MSTORE PUSH1 0x20 ADD PUSH1 0x1 DUP3 ADD DUP1 SLOAD PUSH2 0x571 SWAP1 PUSH2 0x19C8 JUMP JUMPDEST DUP1 PUSH1 0x1F ADD PUSH1 0x20 DUP1 SWAP2 DIV MUL PUSH1 0x20 ADD PUSH1 0x40 MLOAD SWAP1 DUP2 ADD PUSH1 0x40 MSTORE DUP1 SWAP3 SWAP2 SWAP1 DUP2 DUP2 MSTORE PUSH1 0x20 ADD DUP3 DUP1 SLOAD PUSH2 0x59D SWAP1 PUSH2 0x19C8 JUMP JUMPDEST DUP1 ISZERO PUSH2 0x5EA JUMPI DUP1 PUSH1 0x1F LT PUSH2 0x5BF JUMPI PUSH2 0x100 DUP1 DUP4 SLOAD DIV MUL DUP4 MSTORE SWAP2 PUSH1 0x20 ADD SWAP2 PUSH2 0x5EA JUMP JUMPDEST DUP3 ADD SWAP2 SWAP1 PUSH1 0x0 MSTORE PUSH1 0x20 PUSH1 0x0 KECCAK256 SWAP1 JUMPDEST DUP2 SLOAD DUP2 MSTORE SWAP1 PUSH1 0x1 ADD SWAP1 PUSH1 0x20 ADD DUP1 DUP4 GT PUSH2 0x5CD JUMPI DUP3 SWAP1 SUB PUSH1 0x1F AND DUP3 ADD SWAP2 JUMPDEST POP POP POP POP POP DUP2 MSTORE PUSH1 0x20 ADD PUSH1 0x2 DUP3 ADD PUSH1 0x0 SWAP1 SLOAD SWAP1 PUSH2 0x100 EXP SWAP1 DIV PUSH20 0xFFFFFFFFFFFFFFFFFFFFFFFFFFFFFFFFFFFFFFFF AND PUSH20 0xFFFFFFFFFFFFFFFFFFFFFFFFFFFFFFFFFFFFFFFF AND PUSH20 0xFFFFFFFFFFFFFFFFFFFFFFFFFFFFFFFFFFFFFFFF AND DUP2 MSTORE PUSH1 0x20 ADD PUSH1 0x2 DUP3 ADD PUSH1 0x14 SWAP1 SLOAD SWAP1 PUSH2 0x100 EXP SWAP1 DIV PUSH8 0xFFFFFFFFFFFFFFFF AND PUSH8 0xFFFFFFFFFFFFFFFF AND PUSH8 0xFFFFFFFFFFFFFFFF AND DUP2 MSTORE PUSH1 0x20 ADD PUSH1 0x2 DUP3 ADD PUSH1 0x1C SWAP1 SLOAD SWAP1 PUSH2 0x100 EXP SWAP1 DIV PUSH1 0xFF AND ISZERO ISZERO ISZERO ISZERO DUP2 MSTORE POP POP SWAP1 POP DUP1 PUSH1 0x80 ADD MLOAD ISZERO PUSH2 0x6DD JUMPI PUSH1 0x40 MLOAD PUSH32 0x8C379A000000000000000000000000000000000000000000000000000000000 DUP2 MSTORE PUSH1 0x4 ADD PUSH2 0x6D4 SWAP1 PUSH2 0x1A45 JUMP JUMPDEST PUSH1 0x40 MLOAD DUP1 SWAP2 SUB SWAP1 REVERT JUMPDEST DUP1 PUSH1 0x40 ADD MLOAD PUSH20 0xFFFFFFFFFFFFFFFFFFFFFFFFFFFFFFFFFFFFFFFF AND CALLER PUSH20 0xFFFFFFFFFFFFFFFFFFFFFFFFFFFFFFFFFFFFFFFF AND EQ DUP1 PUSH2 0x74D JUMPI POP PUSH2 0x71E PUSH2 0xF2A JUMP JUMPDEST PUSH20 0xFFFFFFFFFFFFFFFFFFFFFFFFFFFFFFFFFFFFFFFF AND CALLER PUSH20 0xFFFFFFFFFFFFFFFFFFFFFFFFFFFFFFFFFFFFFFFF AND EQ JUMPDEST PUSH2 0x78C JUMPI PUSH1 0x40 MLOAD PUSH32 0x8C379A000000000000000000000000000000000000000000000000000000000 DUP2 MSTORE PUSH1 0x4 ADD PUSH2 0x783 SWAP1 PUSH2 0x1AB1 JUMP JUMPDEST PUSH1 0x40 MLOAD DUP1 SWAP2 SUB SWAP1 REVERT JUMPDEST PUSH1 0x0 DUP1 SHL DUP7 SUB PUSH2 0x7D1 JUMPI PUSH1 0x40 MLOAD PUSH32 0x8C379A000000000000000000000000000000000000000000000000000000000 DUP2 MSTORE PUSH1 0x4 ADD PUSH2 0x7C8 SWAP1 PUSH2 0x1B1D JUMP JUMPDEST PUSH1 0x40 MLOAD DUP1 SWAP2 SUB SWAP1 REVERT JUMPDEST PUSH1 0x0 DUP6 DUP6 SWAP1 POP GT PUSH2 0x817 JUMPI PUSH1 0x40 MLOAD PUSH32 0x8C379A000000000000000000000000000000000000000000000000000000000 DUP2 MSTORE PUSH1 0x4 ADD PUSH2 0x80E SWAP1 PUSH2 0x1B89 JUMP JUMPDEST PUSH1 0x40 MLOAD DUP1 SWAP2 SUB SWAP1 REVERT JUMPDEST PUSH1 0x1 PUSH1 0x0 DUP9 DUP2 MSTORE PUSH1 0x20 ADD SWAP1 DUP2 MSTORE PUSH1 0x20 ADD PUSH1 0x0 KECCAK256 DUP1 SLOAD SWAP1 POP SWAP3 POP PUSH1 0x1 PUSH1 0x0 DUP9 DUP2 MSTORE PUSH1 0x20 ADD SWAP1 DUP2 MSTORE PUSH1 0x20 ADD PUSH1 0x0 KECCAK256 PUSH1 0x40 MLOAD DUP1 PUSH1 0xA0 ADD PUSH1 0x40 MSTORE DUP1 DUP9 DUP2 MSTORE PUSH1 0x20 ADD DUP8 DUP8 DUP1 DUP1 PUSH1 0x1F ADD PUSH1 0x20 DUP1 SWAP2 DIV MUL PUSH1 0x20 ADD PUSH1 0x40 MLOAD SWAP1 DUP2 ADD PUSH1 0x40 MSTORE DUP1 SWAP4 SWAP3 SWAP2 SWAP1 DUP2 DUP2 MSTORE PUSH1 0x20 ADD DUP4 DUP4 DUP1 DUP3 DUP5 CALLDATACOPY PUSH1 0x0 DUP2 DUP5 ADD MSTORE PUSH1 0x1F NOT PUSH1 0x1F DUP3 ADD AND SWAP1 POP DUP1 DUP4 ADD SWAP3 POP POP POP POP POP POP POP DUP2 MSTORE PUSH1 0x20 ADD CALLER PUSH20 0xFFFFFFFFFFFFFFFFFFFFFFFFFFFFFFFFFFFFFFFF AND DUP2 MSTORE PUSH1 0x20 ADD TIMESTAMP PUSH8 0xFFFFFFFFFFFFFFFF AND DUP2 MSTORE PUSH1 0x20 ADD PUSH1 0x0 ISZERO ISZERO DUP2 MSTORE POP SWAP1 DUP1 PUSH1 0x1 DUP2 SLOAD ADD DUP1 DUP3 SSTORE DUP1 SWAP2 POP POP PUSH1 0x1 SWAP1 SUB SWAP1 PUSH1 0x0 MSTORE PUSH1 0x20 PUSH1 0x0 KECCAK256 SWAP1 PUSH1 0x3 MUL ADD PUSH1 0x0 SWAP1 SWAP2 SWAP1 SWAP2 SWAP1 SWAP2 POP PUSH1 0x0 DUP3 ADD MLOAD DUP2 PUSH1 0x0 ADD SSTORE PUSH1 0x20 DUP3 ADD MLOAD DUP2 PUSH1 0x1 ADD SWAP1 DUP2 PUSH2 0x919 SWAP2 SWAP1 PUSH2 0x1D84 JUMP JUMPDEST POP PUSH1 0x40 DUP3 ADD MLOAD DUP2 PUSH1 0x2 ADD PUSH1 0x0 PUSH2 0x100 EXP DUP2 SLOAD DUP2 PUSH20 0xFFFFFFFFFFFFFFFFFFFFFFFFFFFFFFFFFFFFFFFF MUL NOT AND SWAP1 DUP4 PUSH20 0xFFFFFFFFFFFFFFFFFFFFFFFFFFFFFFFFFFFFFFFF AND MUL OR SWAP1 SSTORE POP PUSH1 0x60 DUP3 ADD MLOAD DUP2 PUSH1 0x2 ADD PUSH1 0x14 PUSH2 0x100 EXP DUP2 SLOAD DUP2 PUSH8 0xFFFFFFFFFFFFFFFF MUL NOT AND SWAP1 DUP4 PUSH8 0xFFFFFFFFFFFFFFFF AND MUL OR SWAP1 SSTORE POP PUSH1 0x80 DUP3 ADD MLOAD DUP2 PUSH1 0x2 ADD PUSH1 0x1C PUSH2 0x100 EXP DUP2 SLOAD DUP2 PUSH1 0xFF MUL NOT AND SWAP1 DUP4 ISZERO ISZERO MUL OR SWAP1 SSTORE POP POP POP CALLER PUSH20 0xFFFFFFFFFFFFFFFFFFFFFFFFFFFFFFFFFFFFFFFF AND DUP4 DUP9 PUSH32 0xD77FE84D4F2A61FE0F7D451AE99D1EAB022F54872F6DC94DF8A39F425D574FCD DUP10 DUP10 DUP10 PUSH1 0x0 PUSH1 0x40 MLOAD PUSH2 0xA01 SWAP5 SWAP4 SWAP3 SWAP2 SWAP1 PUSH2 0x1EB0 JUMP JUMPDEST PUSH1 0x40 MLOAD DUP1 SWAP2 SUB SWAP1 LOG4 POP POP SWAP5 SWAP4 POP POP POP POP JUMP JUMPDEST PUSH1 0x0 DUP1 PUSH1 0x0 DUP1 SHL DUP7 SUB PUSH2 0xA5B JUMPI PUSH1 0x40 MLOAD PUSH32 0x8C379A000000000000000000000000000000000000000000000000000000000 DUP2 MSTORE PUSH1 0x4 ADD PUSH2 0xA52 SWAP1 PUSH2 0x1B1D JUMP JUMPDEST PUSH1 0x40 MLOAD DUP1 SWAP2 SUB SWAP1 REVERT JUMPDEST PUSH1 0x0 DUP6 DUP6 SWAP1 POP GT PUSH2 0xAA1 JUMPI PUSH1 0x40 MLOAD PUSH32 0x8C379A000000000000000000000000000000000000000000000000000000000 DUP2 MSTORE PUSH1 0x4 ADD PUSH2 0xA98 SWAP1 PUSH2 0x1B89 JUMP JUMPDEST PUSH1 0x40 MLOAD DUP1 SWAP2 SUB SWAP1 REVERT JUMPDEST PUSH1 0x2 PUSH1 0x0 DUP2 SLOAD DUP1 SWAP3 SWAP2 SWAP1 PUSH2 0xAB4 SWAP1 PUSH2 0x1EF0 JUMP JUMPDEST SWAP2 SWAP1 POP SSTORE SWAP2 POP PUSH1 0x1 PUSH1 0x0 DUP4 DUP2 MSTORE PUSH1 0x20 ADD SWAP1 DUP2 MSTORE PUSH1 0x20 ADD PUSH1 0x0 KECCAK256 PUSH1 0x40 MLOAD DUP1 PUSH1 0xA0 ADD PUSH1 0x40 MSTORE DUP1 DUP9 DUP2 MSTORE PUSH1 0x20 ADD DUP8 DUP8 DUP1 DUP1 PUSH1 0x1F ADD PUSH1 0x20 DUP1 SWAP2 DIV MUL PUSH1 0x20 ADD PUSH1 0x40 MLOAD SWAP1 DUP2 ADD PUSH1 0x40 MSTORE DUP1 SWAP4 SWAP3 SWAP2 SWAP1 DUP2 DUP2 MSTORE PUSH1 0x20 ADD DUP4 DUP4 DUP1 DUP3 DUP5 CALLDATACOPY PUSH1 0x0 DUP2 DUP5 ADD MSTORE PUSH1 0x1F NOT PUSH1 0x1F DUP3 ADD AND SWAP1 POP DUP1 DUP4 ADD SWAP3 POP POP POP POP POP POP POP DUP2 MSTORE PUSH1 0x20 ADD CALLER PUSH20 0xFFFFFFFFFFFFFFFFFFFFFFFFFFFFFFFFFFFFFFFF AND DUP2 MSTORE PUSH1 0x20 ADD TIMESTAMP PUSH8 0xFFFFFFFFFFFFFFFF AND DUP2 MSTORE PUSH1 0x20 ADD DUP6 ISZERO ISZERO DUP2 MSTORE POP SWAP1 DUP1 PUSH1 0x1 DUP2 SLOAD ADD DUP1 DUP3 SSTORE DUP1 SWAP2 POP POP PUSH1 0x1 SWAP1 SUB SWAP1 PUSH1 0x0 MSTORE PUSH1 0x20 PUSH1 0x0 KECCAK256 SWAP1 PUSH1 0x3 MUL ADD PUSH1 0x0 SWAP1 SWAP2 SWAP1 SWAP2 SWAP1 SWAP2 POP PUSH1 0x0 DUP3 ADD MLOAD DUP2 PUSH1 0x0 ADD SSTORE PUSH1 0x20 DUP3 ADD MLOAD DUP2 PUSH1 0x1 ADD SWAP1 DUP2 PUSH2 0xBA2 SWAP2 SWAP1 PUSH2 0x1D84 JUMP JUMPDEST POP PUSH1 0x40 DUP3 ADD MLOAD DUP2 PUSH1 0x2 ADD PUSH1 0x0 PUSH2 0x100 EXP DUP2 SLOAD DUP2 PUSH20 0xFFFFFFFFFFFFFFFFFFFFFFFFFFFFFFFFFFFFFFFF MUL NOT AND SWAP1 DUP4 PUSH20 0xFFFFFFFFFFFFFFFFFFFFFFFFFFFFFFFFFFFFFFFF AND MUL OR SWAP1 SSTORE POP PUSH1 0x60 DUP3 ADD MLOAD DUP2 PUSH1 0x2 ADD PUSH1 0x14 PUSH2 0x100 EXP DUP2 SLOAD DUP2 PUSH8 0xFFFFFFFFFFFFFFFF MUL NOT AND SWAP1 DUP4 PUSH8 0xFFFFFFFFFFFFFFFF AND MUL OR SWAP1 SSTORE POP PUSH1 0x80 DUP3 ADD MLOAD DUP2 PUSH1 0x2 ADD PUSH1 0x1C PUSH2 0x100 EXP DUP2 SLOAD DUP2 PUSH1 0xFF MUL NOT AND SWAP1 DUP4 ISZERO ISZERO MUL OR SWAP1 SSTORE POP POP POP CALLER PUSH20 0xFFFFFFFFFFFFFFFFFFFFFFFFFFFFFFFFFFFFFFFF AND PUSH1 0x0 DUP4 PUSH32 0xD77FE84D4F2A61FE0F7D451AE99D1EAB022F54872F6DC94DF8A39F425D574FCD DUP10 DUP10 DUP10 DUP10 PUSH1 0x40 MLOAD PUSH2 0xC8A SWAP5 SWAP4 SWAP3 SWAP2 SWAP1 PUSH2 0x1EB0 JUMP JUMPDEST PUSH1 0x40 MLOAD DUP1 SWAP2 SUB SWAP1 LOG4 DUP3 ISZERO PUSH2 0xCC6 JUMPI DUP2 PUSH32 0xFD295620ABD5998C47C7096C65BF6D4A3D7B026DE9BCC55154DF280A7976E173 PUSH1 0x40 MLOAD PUSH1 0x40 MLOAD DUP1 SWAP2 SUB SWAP1 LOG2 JUMPDEST DUP2 PUSH1 0x0 SWAP2 POP SWAP2 POP SWAP5 POP SWAP5 SWAP3 POP POP POP JUMP JUMPDEST PUSH2 0xCDE PUSH2 0x134E JUMP JUMPDEST DUP3 PUSH1 0x0 PUSH1 0x1 PUSH1 0x0 DUP4 DUP2 MSTORE PUSH1 0x20 ADD SWAP1 DUP2 MSTORE PUSH1 0x20 ADD PUSH1 0x0 KECCAK256 DUP1 SLOAD SWAP1 POP GT PUSH2 0xD38 JUMPI PUSH1 0x40 MLOAD PUSH32 0x8C379A000000000000000000000000000000000000000000000000000000000 DUP2 MSTORE PUSH1 0x4 ADD PUSH2 0xD2F SWAP1 PUSH2 0x18E7 JUMP JUMPDEST PUSH1 0x40 MLOAD DUP1 SWAP2 SUB SWAP1 REVERT JUMPDEST PUSH1 0x1 PUSH1 0x0 DUP6 DUP2 MSTORE PUSH1 0x20 ADD SWAP1 DUP2 MSTORE PUSH1 0x20 ADD PUSH1 0x0 KECCAK256 DUP1 SLOAD SWAP1 POP DUP4 LT PUSH2 0xD90 JUMPI PUSH1 0x40 MLOAD PUSH32 0x8C379A000000000000000000000000000000000000000000000000000000000 DUP2 MSTORE PUSH1 0x4 ADD PUSH2 0xD87 SWAP1 PUSH2 0x1F84 JUMP JUMPDEST PUSH1 0x40 MLOAD DUP1 SWAP2 SUB SWAP1 REVERT JUMPDEST PUSH1 0x1 PUSH1 0x0 DUP6 DUP2 MSTORE PUSH1 0x20 ADD SWAP1 DUP2 MSTORE PUSH1 0x20 ADD PUSH1 0x0 KECCAK256 DUP4 DUP2 SLOAD DUP2 LT PUSH2 0xDB5 JUMPI PUSH2 0xDB4 PUSH2 0x196A JUMP JUMPDEST JUMPDEST SWAP1 PUSH1 0x0 MSTORE PUSH1 0x20 PUSH1 0x0 KECCAK256 SWAP1 PUSH1 0x3 MUL ADD PUSH1 0x40 MLOAD DUP1 PUSH1 0xA0 ADD PUSH1 0x40 MSTORE SWAP1 DUP2 PUSH1 0x0 DUP3 ADD SLOAD DUP2 MSTORE PUSH1 0x20 ADD PUSH1 0x1 DUP3 ADD DUP1 SLOAD PUSH2 0xDE8 SWAP1 PUSH2 0x19C8 JUMP JUMPDEST DUP1 PUSH1 0x1F ADD PUSH1 0x20 DUP1 SWAP2 DIV MUL PUSH1 0x20 ADD PUSH1 0x40 MLOAD SWAP1 DUP2 ADD PUSH1 0x40 MSTORE DUP1 SWAP3 SWAP2 SWAP1 DUP2 DUP2 MSTORE PUSH1 0x20 ADD DUP3 DUP1 SLOAD PUSH2 0xE14 SWAP1 PUSH2 0x19C8 JUMP JUMPDEST DUP1 ISZERO PUSH2 0xE61 JUMPI DUP1 PUSH1 0x1F LT PUSH2 0xE36 JUMPI PUSH2 0x100 DUP1 DUP4 SLOAD DIV MUL DUP4 MSTORE SWAP2 PUSH1 0x20 ADD SWAP2 PUSH2 0xE61 JUMP JUMPDEST DUP3 ADD SWAP2 SWAP1 PUSH1 0x0 MSTORE PUSH1 0x20 PUSH1 0x0 KECCAK256 SWAP1 JUMPDEST DUP2 SLOAD DUP2 MSTORE SWAP1 PUSH1 0x1 ADD SWAP1 PUSH1 0x20 ADD DUP1 DUP4 GT PUSH2 0xE44 JUMPI DUP3 SWAP1 SUB PUSH1 0x1F AND DUP3 ADD SWAP2 JUMPDEST POP POP POP POP POP DUP2 MSTORE PUSH1 0x20 ADD PUSH1 0x2 DUP3 ADD PUSH1 0x0 SWAP1 SLOAD SWAP1 PUSH2 0x100 EXP SWAP1 DIV PUSH20 0xFFFFFFFFFFFFFFFFFFFFFFFFFFFFFFFFFFFFFFFF AND PUSH20 0xFFFFFFFFFFFFFFFFFFFFFFFFFFFFFFFFFFFFFFFF AND PUSH20 0xFFFFFFFFFFFFFFFFFFFFFFFFFFFFFFFFFFFFFFFF AND DUP2 MSTORE PUSH1 0x20 ADD PUSH1 0x2 DUP3 ADD PUSH1 0x14 SWAP1 SLOAD SWAP1 PUSH2 0x100 EXP SWAP1 DIV PUSH8 0xFFFFFFFFFFFFFFFF AND PUSH8 0xFFFFFFFFFFFFFFFF AND PUSH8 0xFFFFFFFFFFFFFFFF AND DUP2 MSTORE PUSH1 0x20 ADD PUSH1 0x2 DUP3 ADD PUSH1 0x1C SWAP1 SLOAD SWAP1 PUSH2 0x100 EXP SWAP1 DIV PUSH1 0xFF AND ISZERO ISZERO ISZERO ISZERO DUP2 MSTORE POP POP SWAP2 POP POP SWAP3 SWAP2 POP POP JUMP JUMPDEST PUSH2 0xF1E PUSH2 0x11FB JUMP JUMPDEST PUSH2 0xF28 PUSH1 0x0 PUSH2 0x1282 JUMP JUMPDEST JUMP JUMPDEST PUSH1 0x0 DUP1 PUSH1 0x0 SWAP1 SLOAD SWAP1 PUSH2 0x100 EXP SWAP1 DIV PUSH20 0xFFFFFFFFFFFFFFFFFFFFFFFFFFFFFFFFFFFFFFFF AND SWAP1 POP SWAP1 JUMP JUMPDEST DUP1 PUSH1 0x0 PUSH1 0x1 PUSH1 0x0 DUP4 DUP2 MSTORE PUSH1 0x20 ADD SWAP1 DUP2 MSTORE PUSH1 0x20 ADD PUSH1 0x0 KECCAK256 DUP1 SLOAD SWAP1 POP GT PUSH2 0xFAD JUMPI PUSH1 0x40 MLOAD PUSH32 0x8C379A000000000000000000000000000000000000000000000000000000000 DUP2 MSTORE PUSH1 0x4 ADD PUSH2 0xFA4 SWAP1 PUSH2 0x18E7 JUMP JUMPDEST PUSH1 0x40 MLOAD DUP1 SWAP2 SUB SWAP1 REVERT JUMPDEST PUSH1 0x0 PUSH1 0x1 PUSH1 0x0 DUP5 DUP2 MSTORE PUSH1 0x20 ADD SWAP1 DUP2 MSTORE PUSH1 0x20 ADD PUSH1 0x0 KECCAK256 PUSH1 0x1 DUP1 PUSH1 0x0 DUP7 DUP2 MSTORE PUSH1 0x20 ADD SWAP1 DUP2 MSTORE PUSH1 0x20 ADD PUSH1 0x0 KECCAK256 DUP1 SLOAD SWAP1 POP PUSH2 0xFE4 SWAP2 SWAP1 PUSH2 0x1936 JUMP JUMPDEST DUP2 SLOAD DUP2 LT PUSH2 0xFF5 JUMPI PUSH2 0xFF4 PUSH2 0x196A JUMP JUMPDEST JUMPDEST SWAP1 PUSH1 0x0 MSTORE PUSH1 0x20 PUSH1 0x0 KECCAK256 SWAP1 PUSH1 0x3 MUL ADD SWAP1 POP DUP1 PUSH1 0x2 ADD PUSH1 0x1C SWAP1 SLOAD SWAP1 PUSH2 0x100 EXP SWAP1 DIV PUSH1 0xFF AND ISZERO PUSH2 0x1057 JUMPI PUSH1 0x40 MLOAD PUSH32 0x8C379A000000000000000000000000000000000000000000000000000000000 DUP2 MSTORE PUSH1 0x4 ADD PUSH2 0x104E SWAP1 PUSH2 0x1FF0 JUMP JUMPDEST PUSH1 0x40 MLOAD DUP1 SWAP2 SUB SWAP1 REVERT JUMPDEST DUP1 PUSH1 0x2 ADD PUSH1 0x0 SWAP1 SLOAD SWAP1 PUSH2 0x100 EXP SWAP1 DIV PUSH20 0xFFFFFFFFFFFFFFFFFFFFFFFFFFFFFFFFFFFFFFFF AND PUSH20 0xFFFFFFFFFFFFFFFFFFFFFFFFFFFFFFFFFFFFFFFF AND CALLER PUSH20 0xFFFFFFFFFFFFFFFFFFFFFFFFFFFFFFFFFFFFFFFF AND EQ DUP1 PUSH2 0x10E7 JUMPI POP PUSH2 0x10B8 PUSH2 0xF2A JUMP JUMPDEST PUSH20 0xFFFFFFFFFFFFFFFFFFFFFFFFFFFFFFFFFFFFFFFF AND CALLER PUSH20 0xFFFFFFFFFFFFFFFFFFFFFFFFFFFFFFFFFFFFFFFF AND EQ JUMPDEST PUSH2 0x1126 JUMPI PUSH1 0x40 MLOAD PUSH32 0x8C379A000000000000000000000000000000000000000000000000000000000 DUP2 MSTORE PUSH1 0x4 ADD PUSH2 0x111D SWAP1 PUSH2 0x1AB1 JUMP JUMPDEST PUSH1 0x40 MLOAD DUP1 SWAP2 SUB SWAP1 REVERT JUMPDEST PUSH1 0x1 DUP2 PUSH1 0x2 ADD PUSH1 0x1C PUSH2 0x100 EXP DUP2 SLOAD DUP2 PUSH1 0xFF MUL NOT AND SWAP1 DUP4 ISZERO ISZERO MUL OR SWAP1 SSTORE POP DUP3 PUSH32 0xFD295620ABD5998C47C7096C65BF6D4A3D7B026DE9BCC55154DF280A7976E173 PUSH1 0x40 MLOAD PUSH1 0x40 MLOAD DUP1 SWAP2 SUB SWAP1 LOG2 POP POP POP JUMP JUMPDEST PUSH2 0x117D PUSH2 0x11FB JUMP JUMPDEST PUSH1 0x0 PUSH20 0xFFFFFFFFFFFFFFFFFFFFFFFFFFFFFFFFFFFFFFFF AND DUP2 PUSH20 0xFFFFFFFFFFFFFFFFFFFFFFFFFFFFFFFFFFFFFFFF AND SUB PUSH2 0x11EF JUMPI PUSH1 0x0 PUSH1 0x40 MLOAD PUSH32 0x1E4FBDF700000000000000000000000000000000000000000000000000000000 DUP2 MSTORE PUSH1 0x4 ADD PUSH2 0x11E6 SWAP2 SWAP1 PUSH2 0x1816 JUMP JUMPDEST PUSH1 0x40 MLOAD DUP1 SWAP2 SUB SWAP1 REVERT JUMPDEST PUSH2 0x11F8 DUP2 PUSH2 0x1282 JUMP JUMPDEST POP JUMP JUMPDEST PUSH2 0x1203 PUSH2 0x1346 JUMP JUMPDEST PUSH20 0xFFFFFFFFFFFFFFFFFFFFFFFFFFFFFFFFFFFFFFFF AND PUSH2 0x1221 PUSH2 0xF2A JUMP JUMPDEST PUSH20 0xFFFFFFFFFFFFFFFFFFFFFFFFFFFFFFFFFFFFFFFF AND EQ PUSH2 0x1280 JUMPI PUSH2 0x1244 PUSH2 0x1346 JUMP JUMPDEST PUSH1 0x40 MLOAD PUSH32 0x118CDAA700000000000000000000000000000000000000000000000000000000 DUP2 MSTORE PUSH1 0x4 ADD PUSH2 0x1277 SWAP2 SWAP1 PUSH2 0x1816 JUMP JUMPDEST PUSH1 0x40 MLOAD DUP1 SWAP2 SUB SWAP1 REVERT JUMPDEST JUMP JUMPDEST PUSH1 0x0 DUP1 PUSH1 0x0 SWAP1 SLOAD SWAP1 PUSH2 0x100 EXP SWAP1 DIV PUSH20 0xFFFFFFFFFFFFFFFFFFFFFFFFFFFFFFFFFFFFFFFF AND SWAP1 POP DUP2 PUSH1 0x0 DUP1 PUSH2 0x100 EXP DUP2 SLOAD DUP2 PUSH20 0xFFFFFFFFFFFFFFFFFFFFFFFFFFFFFFFFFFFFFFFF MUL NOT AND SWAP1 DUP4 PUSH20 0xFFFFFFFFFFFFFFFFFFFFFFFFFFFFFFFFFFFFFFFF AND MUL OR SWAP1 SSTORE POP DUP2 PUSH20 0xFFFFFFFFFFFFFFFFFFFFFFFFFFFFFFFFFFFFFFFF AND DUP2 PUSH20 0xFFFFFFFFFFFFFFFFFFFFFFFFFFFFFFFFFFFFFFFF AND PUSH32 0x8BE0079C531659141344CD1FD0A4F28419497F9722A3DAAFE3B4186F6B6457E0 PUSH1 0x40 MLOAD PUSH1 0x40 MLOAD DUP1 SWAP2 SUB SWAP1 LOG3 POP POP JUMP JUMPDEST PUSH1 0x0 CALLER SWAP1 POP SWAP1 JUMP JUMPDEST PUSH1 0x40 MLOAD DUP1 PUSH1 0xA0 ADD PUSH1 0x40 MSTORE DUP1 PUSH1 0x0 DUP1 NOT AND DUP2 MSTORE PUSH1 0x20 ADD PUSH1 0x60 DUP2 MSTORE PUSH1 0x20 ADD PUSH1 0x0 PUSH20 0xFFFFFFFFFFFFFFFFFFFFFFFFFFFFFFFFFFFFFFFF AND DUP2 MSTORE PUSH1 0x20 ADD PUSH1 0x0 PUSH8 0xFFFFFFFFFFFFFFFF AND DUP2 MSTORE PUSH1 0x20 ADD PUSH1 0x0 ISZERO ISZERO DUP2 MSTORE POP SWAP1 JUMP JUMPDEST PUSH1 0x0 DUP1 REVERT JUMPDEST PUSH1 0x0 DUP1 REVERT JUMPDEST PUSH1 0x0 DUP2 SWAP1 POP SWAP2 SWAP1 POP JUMP JUMPDEST PUSH2 0x13BF DUP2 PUSH2 0x13AC JUMP JUMPDEST DUP2 EQ PUSH2 0x13CA JUMPI PUSH1 0x0 DUP1 REVERT JUMPDEST POP JUMP JUMPDEST PUSH1 0x0 DUP2 CALLDATALOAD SWAP1 POP PUSH2 0x13DC DUP2 PUSH2 0x13B6 JUMP JUMPDEST SWAP3 SWAP2 POP POP JUMP JUMPDEST PUSH1 0x0 PUSH1 0x20 DUP3 DUP5 SUB SLT ISZERO PUSH2 0x13F8 JUMPI PUSH2 0x13F7 PUSH2 0x13A2 JUMP JUMPDEST JUMPDEST PUSH1 0x0 PUSH2 0x1406 DUP5 DUP3 DUP6 ADD PUSH2 0x13CD JUMP JUMPDEST SWAP2 POP POP SWAP3 SWAP2 POP POP JUMP JUMPDEST PUSH1 0x0 DUP2 SWAP1 POP SWAP2 SWAP1 POP JUMP JUMPDEST PUSH2 0x1422 DUP2 PUSH2 0x140F JUMP JUMPDEST DUP3 MSTORE POP POP JUMP JUMPDEST PUSH1 0x0 DUP2 MLOAD SWAP1 POP SWAP2 SWAP1 POP JUMP JUMPDEST PUSH1 0x0 DUP3 DUP3 MSTORE PUSH1 0x20 DUP3 ADD SWAP1 POP SWAP3 SWAP2 POP POP JUMP JUMPDEST PUSH1 0x0 JUMPDEST DUP4 DUP2 LT ISZERO PUSH2 0x1462 JUMPI DUP1 DUP3 ADD MLOAD DUP2 DUP5 ADD MSTORE PUSH1 0x20 DUP2 ADD SWAP1 POP PUSH2 0x1447 JUMP JUMPDEST PUSH1 0x0 DUP5 DUP5 ADD MSTORE POP POP POP POP JUMP JUMPDEST PUSH1 0x0 PUSH1 0x1F NOT PUSH1 0x1F DUP4 ADD AND SWAP1 POP SWAP2 SWAP1 POP JUMP JUMPDEST PUSH1 0x0 PUSH2 0x148A DUP3 PUSH2 0x1428 JUMP JUMPDEST PUSH2 0x1494 DUP2 DUP6 PUSH2 0x1433 JUMP JUMPDEST SWAP4 POP PUSH2 0x14A4 DUP2 DUP6 PUSH1 0x20 DUP7 ADD PUSH2 0x1444 JUMP JUMPDEST PUSH2 0x14AD DUP2 PUSH2 0x146E JUMP JUMPDEST DUP5 ADD SWAP2 POP POP SWAP3 SWAP2 POP POP JUMP JUMPDEST PUSH1 0x0 PUSH20 0xFFFFFFFFFFFFFFFFFFFFFFFFFFFFFFFFFFFFFFFF DUP3 AND SWAP1 POP SWAP2 SWAP1 POP JUMP JUMPDEST PUSH1 0x0 PUSH2 0x14E3 DUP3 PUSH2 0x14B8 JUMP JUMPDEST SWAP1 POP SWAP2 SWAP1 POP JUMP JUMPDEST PUSH2 0x14F3 DUP2 PUSH2 0x14D8 JUMP JUMPDEST DUP3 MSTORE POP POP JUMP JUMPDEST PUSH1 0x0 PUSH8 0xFFFFFFFFFFFFFFFF DUP3 AND SWAP1 POP SWAP2 SWAP1 POP JUMP JUMPDEST PUSH2 0x1516 DUP2 PUSH2 0x14F9 JUMP JUMPDEST DUP3 MSTORE POP POP JUMP JUMPDEST PUSH1 0x0 DUP2 ISZERO ISZERO SWAP1 POP SWAP2 SWAP1 POP JUMP JUMPDEST PUSH2 0x1531 DUP2 PUSH2 0x151C JUMP JUMPDEST DUP3 MSTORE POP POP JUMP JUMPDEST PUSH1 0x0 PUSH1 0xA0 DUP4 ADD PUSH1 0x0 DUP4 ADD MLOAD PUSH2 0x154F PUSH1 0x0 DUP7 ADD DUP3 PUSH2 0x1419 JUMP JUMPDEST POP PUSH1 0x20 DUP4 ADD MLOAD DUP5 DUP3 SUB PUSH1 0x20 DUP7 ADD MSTORE PUSH2 0x1567 DUP3 DUP3 PUSH2 0x147F JUMP JUMPDEST SWAP2 POP POP PUSH1 0x40 DUP4 ADD MLOAD PUSH2 0x157C PUSH1 0x40 DUP7 ADD DUP3 PUSH2 0x14EA JUMP JUMPDEST POP PUSH1 0x60 DUP4 ADD MLOAD PUSH2 0x158F PUSH1 0x60 DUP7 ADD DUP3 PUSH2 0x150D JUMP JUMPDEST POP PUSH1 0x80 DUP4 ADD MLOAD PUSH2 0x15A2 PUSH1 0x80 DUP7 ADD DUP3 PUSH2 0x1528 JUMP JUMPDEST POP DUP1 SWAP2 POP POP SWAP3 SWAP2 POP POP JUMP JUMPDEST PUSH1 0x0 PUSH1 0x20 DUP3 ADD SWAP1 POP DUP2 DUP2 SUB PUSH1 0x0 DUP4 ADD MSTORE PUSH2 0x15C7 DUP2 DUP5 PUSH2 0x1537 JUMP JUMPDEST SWAP1 POP SWAP3 SWAP2 POP POP JUMP JUMPDEST PUSH2 0x15D8 DUP2 PUSH2 0x13AC JUMP JUMPDEST DUP3 MSTORE POP POP JUMP JUMPDEST PUSH1 0x0 PUSH1 0x20 DUP3 ADD SWAP1 POP PUSH2 0x15F3 PUSH1 0x0 DUP4 ADD DUP5 PUSH2 0x15CF JUMP JUMPDEST SWAP3 SWAP2 POP POP JUMP JUMPDEST PUSH2 0x1602 DUP2 PUSH2 0x140F JUMP JUMPDEST DUP2 EQ PUSH2 0x160D JUMPI PUSH1 0x0 DUP1 REVERT JUMPDEST POP JUMP JUMPDEST PUSH1 0x0 DUP2 CALLDATALOAD SWAP1 POP PUSH2 0x161F DUP2 PUSH2 0x15F9 JUMP JUMPDEST SWAP3 SWAP2 POP POP JUMP JUMPDEST PUSH1 0x0 DUP1 REVERT JUMPDEST PUSH1 0x0 DUP1 REVERT JUMPDEST PUSH1 0x0 DUP1 REVERT JUMPDEST PUSH1 0x0 DUP1 DUP4 PUSH1 0x1F DUP5 ADD SLT PUSH2 0x164A JUMPI PUSH2 0x1649 PUSH2 0x1625 JUMP JUMPDEST JUMPDEST DUP3 CALLDATALOAD SWAP1 POP PUSH8 0xFFFFFFFFFFFFFFFF DUP2 GT ISZERO PUSH2 0x1667 JUMPI PUSH2 0x1666 PUSH2 0x162A JUMP JUMPDEST JUMPDEST PUSH1 0x20 DUP4 ADD SWAP2 POP DUP4 PUSH1 0x1 DUP3 MUL DUP4 ADD GT ISZERO PUSH2 0x1683 JUMPI PUSH2 0x1682 PUSH2 0x162F JUMP JUMPDEST JUMPDEST SWAP3 POP SWAP3 SWAP1 POP JUMP JUMPDEST PUSH1 0x0 DUP1 PUSH1 0x0 DUP1 PUSH1 0x60 DUP6 DUP8 SUB SLT ISZERO PUSH2 0x16A4 JUMPI PUSH2 0x16A3 PUSH2 0x13A2 JUMP JUMPDEST JUMPDEST PUSH1 0x0 PUSH2 0x16B2 DUP8 DUP3 DUP9 ADD PUSH2 0x13CD JUMP JUMPDEST SWAP5 POP POP PUSH1 0x20 PUSH2 0x16C3 DUP8 DUP3 DUP9 ADD PUSH2 0x1610 JUMP JUMPDEST SWAP4 POP POP PUSH1 0x40 DUP6 ADD CALLDATALOAD PUSH8 0xFFFFFFFFFFFFFFFF DUP2 GT ISZERO PUSH2 0x16E4 JUMPI PUSH2 0x16E3 PUSH2 0x13A7 JUMP JUMPDEST JUMPDEST PUSH2 0x16F0 DUP8 DUP3 DUP9 ADD PUSH2 0x1634 JUMP JUMPDEST SWAP3 POP SWAP3 POP POP SWAP3 SWAP6 SWAP2 SWAP5 POP SWAP3 POP JUMP JUMPDEST PUSH2 0x1707 DUP2 PUSH2 0x151C JUMP JUMPDEST DUP2 EQ PUSH2 0x1712 JUMPI PUSH1 0x0 DUP1 REVERT JUMPDEST POP JUMP JUMPDEST PUSH1 0x0 DUP2 CALLDATALOAD SWAP1 POP PUSH2 0x1724 DUP2 PUSH2 0x16FE JUMP JUMPDEST SWAP3 SWAP2 POP POP JUMP JUMPDEST PUSH1 0x0 DUP1 PUSH1 0x0 DUP1 PUSH1 0x60 DUP6 DUP8 SUB SLT ISZERO PUSH2 0x1744 JUMPI PUSH2 0x1743 PUSH2 0x13A2 JUMP JUMPDEST JUMPDEST PUSH1 0x0 PUSH2 0x1752 DUP8 DUP3 DUP9 ADD PUSH2 0x1610 JUMP JUMPDEST SWAP5 POP POP PUSH1 0x20 DUP6 ADD CALLDATALOAD PUSH8 0xFFFFFFFFFFFFFFFF DUP2 GT ISZERO PUSH2 0x1773 JUMPI PUSH2 0x1772 PUSH2 0x13A7 JUMP JUMPDEST JUMPDEST PUSH2 0x177F DUP8 DUP3 DUP9 ADD PUSH2 0x1634 JUMP JUMPDEST SWAP4 POP SWAP4 POP POP PUSH1 0x40 PUSH2 0x1792 DUP8 DUP3 DUP9 ADD PUSH2 0x1715 JUMP JUMPDEST SWAP2 POP POP SWAP3 SWAP6 SWAP2 SWAP5 POP SWAP3 POP JUMP JUMPDEST PUSH1 0x0 PUSH1 0x40 DUP3 ADD SWAP1 POP PUSH2 0x17B3 PUSH1 0x0 DUP4 ADD DUP6 PUSH2 0x15CF JUMP JUMPDEST PUSH2 0x17C0 PUSH1 0x20 DUP4 ADD DUP5 PUSH2 0x15CF JUMP JUMPDEST SWAP4 SWAP3 POP POP POP JUMP JUMPDEST PUSH1 0x0 DUP1 PUSH1 0x40 DUP4 DUP6 SUB SLT ISZERO PUSH2 0x17DE JUMPI PUSH2 0x17DD PUSH2 0x13A2 JUMP JUMPDEST JUMPDEST PUSH1 0x0 PUSH2 0x17EC DUP6 DUP3 DUP7 ADD PUSH2 0x13CD JUMP JUMPDEST SWAP3 POP POP PUSH1 0x20 PUSH2 0x17FD DUP6 DUP3 DUP7 ADD PUSH2 0x13CD JUMP JUMPDEST SWAP2 POP POP SWAP3 POP SWAP3 SWAP1 POP JUMP JUMPDEST PUSH2 0x1810 DUP2 PUSH2 0x14D8 JUMP JUMPDEST DUP3 MSTORE POP POP JUMP JUMPDEST PUSH1 0x0 PUSH1 0x20 DUP3 ADD SWAP1 POP PUSH2 0x182B PUSH1 0x0 DUP4 ADD DUP5 PUSH2 0x1807 JUMP JUMPDEST SWAP3 SWAP2 POP POP JUMP JUMPDEST PUSH2 0x183A DUP2 PUSH2 0x14D8 JUMP JUMPDEST DUP2 EQ PUSH2 0x1845 JUMPI PUSH1 0x0 DUP1 REVERT JUMPDEST POP JUMP JUMPDEST PUSH1 0x0 DUP2 CALLDATALOAD SWAP1 POP PUSH2 0x1857 DUP2 PUSH2 0x1831 JUMP JUMPDEST SWAP3 SWAP2 POP POP JUMP JUMPDEST PUSH1 0x0 PUSH1 0x20 DUP3 DUP5 SUB SLT ISZERO PUSH2 0x1873 JUMPI PUSH2 0x1872 PUSH2 0x13A2 JUMP JUMPDEST JUMPDEST PUSH1 0x0 PUSH2 0x1881 DUP5 DUP3 DUP6 ADD PUSH2 0x1848 JUMP JUMPDEST SWAP2 POP POP SWAP3 SWAP2 POP POP JUMP JUMPDEST PUSH1 0x0 DUP3 DUP3 MSTORE PUSH1 0x20 DUP3 ADD SWAP1 POP SWAP3 SWAP2 POP POP JUMP JUMPDEST PUSH32 0x4D656D6F7269616C3A206E6F7420666F756E6400000000000000000000000000 PUSH1 0x0 DUP3 ADD MSTORE POP JUMP JUMPDEST PUSH1 0x0 PUSH2 0x18D1 PUSH1 0x13 DUP4 PUSH2 0x188A JUMP JUMPDEST SWAP2 POP PUSH2 0x18DC DUP3 PUSH2 0x189B JUMP JUMPDEST PUSH1 0x20 DUP3 ADD SWAP1 POP SWAP2 SWAP1 POP JUMP JUMPDEST PUSH1 0x0 PUSH1 0x20 DUP3 ADD SWAP1 POP DUP2 DUP2 SUB PUSH1 0x0 DUP4 ADD MSTORE PUSH2 0x1900 DUP2 PUSH2 0x18C4 JUMP JUMPDEST SWAP1 POP SWAP2 SWAP1 POP JUMP JUMPDEST PUSH32 0x4E487B7100000000000000000000000000000000000000000000000000000000 PUSH1 0x0 MSTORE PUSH1 0x11 PUSH1 0x4 MSTORE PUSH1 0x24 PUSH1 0x0 REVERT JUMPDEST PUSH1 0x0 PUSH2 0x1941 DUP3 PUSH2 0x13AC JUMP JUMPDEST SWAP2 POP PUSH2 0x194C DUP4 PUSH2 0x13AC JUMP JUMPDEST SWAP3 POP DUP3 DUP3 SUB SWAP1 POP DUP2 DUP2 GT ISZERO PUSH2 0x1964 JUMPI PUSH2 0x1963 PUSH2 0x1907 JUMP JUMPDEST JUMPDEST SWAP3 SWAP2 POP POP JUMP JUMPDEST PUSH32 0x4E487B7100000000000000000000000000000000000000000000000000000000 PUSH1 0x0 MSTORE PUSH1 0x32 PUSH1 0x4 MSTORE PUSH1 0x24 PUSH1 0x0 REVERT JUMPDEST PUSH32 0x4E487B7100000000000000000000000000000000000000000000000000000000 PUSH1 0x0 MSTORE PUSH1 0x22 PUSH1 0x4 MSTORE PUSH1 0x24 PUSH1 0x0 REVERT JUMPDEST PUSH1 0x0 PUSH1 0x2 DUP3 DIV SWAP1 POP PUSH1 0x1 DUP3 AND DUP1 PUSH2 0x19E0 JUMPI PUSH1 0x7F DUP3 AND SWAP2 POP JUMPDEST PUSH1 0x20 DUP3 LT DUP2 SUB PUSH2 0x19F3 JUMPI PUSH2 0x19F2 PUSH2 0x1999 JUMP JUMPDEST JUMPDEST POP SWAP2 SWAP1 POP JUMP JUMPDEST PUSH32 0x4D656D6F7269616C206973206C6F636B65640000000000000000000000000000 PUSH1 0x0 DUP3 ADD MSTORE POP JUMP JUMPDEST PUSH1 0x0 PUSH2 0x1A2F PUSH1 0x12 DUP4 PUSH2 0x188A JUMP JUMPDEST SWAP2 POP PUSH2 0x1A3A DUP3 PUSH2 0x19F9 JUMP JUMPDEST PUSH1 0x20 DUP3 ADD SWAP1 POP SWAP2 SWAP1 POP JUMP JUMPDEST PUSH1 0x0 PUSH1 0x20 DUP3 ADD SWAP1 POP DUP2 DUP2 SUB PUSH1 0x0 DUP4 ADD MSTORE PUSH2 0x1A5E DUP2 PUSH2 0x1A22 JUMP JUMPDEST SWAP1 POP SWAP2 SWAP1 POP JUMP JUMPDEST PUSH32 0x4E6F7420617574686F72697A6564000000000000000000000000000000000000 PUSH1 0x0 DUP3 ADD MSTORE POP JUMP JUMPDEST PUSH1 0x0 PUSH2 0x1A9B PUSH1 0xE DUP4 PUSH2 0x188A JUMP JUMPDEST SWAP2 POP PUSH2 0x1AA6 DUP3 PUSH2 0x1A65 JUMP JUMPDEST PUSH1 0x20 DUP3 ADD SWAP1 POP SWAP2 SWAP1 POP JUMP JUMPDEST PUSH1 0x0 PUSH1 0x20 DUP3 ADD SWAP1 POP DUP2 DUP2 SUB PUSH1 0x0 DUP4 ADD MSTORE PUSH2 0x1ACA DUP2 PUSH2 0x1A8E JUMP JUMPDEST SWAP1 POP SWAP2 SWAP1 POP JUMP JUMPDEST PUSH32 0x496E76616C696420686173680000000000000000000000000000000000000000 PUSH1 0x0 DUP3 ADD MSTORE POP JUMP JUMPDEST PUSH1 0x0 PUSH2 0x1B07 PUSH1 0xC DUP4 PUSH2 0x188A JUMP JUMPDEST SWAP2 POP PUSH2 0x1B12 DUP3 PUSH2 0x1AD1 JUMP JUMPDEST PUSH1 0x20 DUP3 ADD SWAP1 POP SWAP2 SWAP1 POP JUMP JUMPDEST PUSH1 0x0 PUSH1 0x20 DUP3 ADD SWAP1 POP DUP2 DUP2 SUB PUSH1 0x0 DUP4 ADD MSTORE PUSH2 0x1B36 DUP2 PUSH2 0x1AFA JUMP JUMPDEST SWAP1 POP SWAP2 SWAP1 POP JUMP JUMPDEST PUSH32 0x496E76616C696420555249000000000000000000000000000000000000000000 PUSH1 0x0 DUP3 ADD MSTORE POP JUMP JUMPDEST PUSH1 0x0 PUSH2 0x1B73 PUSH1 0xB DUP4 PUSH2 0x188A JUMP JUMPDEST SWAP2 POP PUSH2 0x1B7E DUP3 PUSH2 0x1B3D JUMP JUMPDEST PUSH1 0x20 DUP3 ADD SWAP1 POP SWAP2 SWAP1 POP JUMP JUMPDEST PUSH1 0x0 PUSH1 0x20 DUP3 ADD SWAP1 POP DUP2 DUP2 SUB PUSH1 0x0 DUP4 ADD MSTORE PUSH2 0x1BA2 DUP2 PUSH2 0x1B66 JUMP JUMPDEST SWAP1 POP SWAP2 SWAP1 POP JUMP JUMPDEST PUSH32 0x4E487B7100000000000000000000000000000000000000000000000000000000 PUSH1 0x0 MSTORE PUSH1 0x41 PUSH1 0x4 MSTORE PUSH1 0x24 PUSH1 0x0 REVERT JUMPDEST PUSH1 0x0 DUP2 SWAP1 POP DUP2 PUSH1 0x0 MSTORE PUSH1 0x20 PUSH1 0x0 KECCAK256 SWAP1 POP SWAP2 SWAP1 POP JUMP JUMPDEST PUSH1 0x0 PUSH1 0x20 PUSH1 0x1F DUP4 ADD DIV SWAP1 POP SWAP2 SWAP1 POP JUMP JUMPDEST PUSH1 0x0 DUP3 DUP3 SHL SWAP1 POP SWAP3 SWAP2 POP POP JUMP JUMPDEST PUSH1 0x0 PUSH1 0x8 DUP4 MUL PUSH2 0x1C3A PUSH32 0xFFFFFFFFFFFFFFFFFFFFFFFFFFFFFFFFFFFFFFFFFFFFFFFFFFFFFFFFFFFFFFFF DUP3 PUSH2 0x1BFD JUMP JUMPDEST PUSH2 0x1C44 DUP7 DUP4 PUSH2 0x1BFD JUMP JUMPDEST SWAP6 POP DUP1 NOT DUP5 AND SWAP4 POP DUP1 DUP7 AND DUP5 OR SWAP3 POP POP POP SWAP4 SWAP3 POP POP POP JUMP JUMPDEST PUSH1 0x0 DUP2 SWAP1 POP SWAP2 SWAP1 POP JUMP JUMPDEST PUSH1 0x0 PUSH2 0x1C81 PUSH2 0x1C7C PUSH2 0x1C77 DUP5 PUSH2 0x13AC JUMP JUMPDEST PUSH2 0x1C5C JUMP JUMPDEST PUSH2 0x13AC JUMP JUMPDEST SWAP1 POP SWAP2 SWAP1 POP JUMP JUMPDEST PUSH1 0x0 DUP2 SWAP1 POP SWAP2 SWAP1 POP JUMP JUMPDEST PUSH2 0x1C9B DUP4 PUSH2 0x1C66 JUMP JUMPDEST PUSH2 0x1CAF PUSH2 0x1CA7 DUP3 PUSH2 0x1C88 JUMP JUMPDEST DUP5 DUP5 SLOAD PUSH2 0x1C0A JUMP JUMPDEST DUP3 SSTORE POP POP POP POP JUMP JUMPDEST PUSH1 0x0 SWAP1 JUMP JUMPDEST PUSH2 0x1CC4 PUSH2 0x1CB7 JUMP JUMPDEST PUSH2 0x1CCF DUP2 DUP5 DUP5 PUSH2 0x1C92 JUMP JUMPDEST POP POP POP JUMP JUMPDEST JUMPDEST DUP2 DUP2 LT ISZERO PUSH2 0x1CF3 JUMPI PUSH2 0x1CE8 PUSH1 0x0 DUP3 PUSH2 0x1CBC JUMP JUMPDEST PUSH1 0x1 DUP2 ADD SWAP1 POP PUSH2 0x1CD5 JUMP JUMPDEST POP POP JUMP JUMPDEST PUSH1 0x1F DUP3 GT ISZERO PUSH2 0x1D38 JUMPI PUSH2 0x1D09 DUP2 PUSH2 0x1BD8 JUMP JUMPDEST PUSH2 0x1D12 DUP5 PUSH2 0x1BED JUMP JUMPDEST DUP2 ADD PUSH1 0x20 DUP6 LT ISZERO PUSH2 0x1D21 JUMPI DUP2 SWAP1 POP JUMPDEST PUSH2 0x1D35 PUSH2 0x1D2D DUP6 PUSH2 0x1BED JUMP JUMPDEST DUP4 ADD DUP3 PUSH2 0x1CD4 JUMP JUMPDEST POP POP JUMPDEST POP POP POP JUMP JUMPDEST PUSH1 0x0 DUP3 DUP3 SHR SWAP1 POP SWAP3 SWAP2 POP POP JUMP JUMPDEST PUSH1 0x0 PUSH2 0x1D5B PUSH1 0x0 NOT DUP5 PUSH1 0x8 MUL PUSH2 0x1D3D JUMP JUMPDEST NOT DUP1 DUP4 AND SWAP2 POP POP SWAP3 SWAP2 POP POP JUMP JUMPDEST PUSH1 0x0 PUSH2 0x1D74 DUP4 DUP4 PUSH2 0x1D4A JUMP JUMPDEST SWAP2 POP DUP3 PUSH1 0x2 MUL DUP3 OR SWAP1 POP SWAP3 SWAP2 POP POP JUMP JUMPDEST PUSH2 0x1D8D DUP3 PUSH2 0x1428 JUMP JUMPDEST PUSH8 0xFFFFFFFFFFFFFFFF DUP2 GT ISZERO PUSH2 0x1DA6 JUMPI PUSH2 0x1DA5 PUSH2 0x1BA9 JUMP JUMPDEST JUMPDEST PUSH2 0x1DB0 DUP3 SLOAD PUSH2 0x19C8 JUMP JUMPDEST PUSH2 0x1DBB DUP3 DUP3 DUP6 PUSH2 0x1CF7 JUMP JUMPDEST PUSH1 0x0 PUSH1 0x20 SWAP1 POP PUSH1 0x1F DUP4 GT PUSH1 0x1 DUP2 EQ PUSH2 0x1DEE JUMPI PUSH1 0x0 DUP5 ISZERO PUSH2 0x1DDC JUMPI DUP3 DUP8 ADD MLOAD SWAP1 POP JUMPDEST PUSH2 0x1DE6 DUP6 DUP3 PUSH2 0x1D68 JUMP JUMPDEST DUP7 SSTORE POP PUSH2 0x1E4E JUMP JUMPDEST PUSH1 0x1F NOT DUP5 AND PUSH2 0x1DFC DUP7 PUSH2 0x1BD8 JUMP JUMPDEST PUSH1 0x0 JUMPDEST DUP3 DUP2 LT ISZERO PUSH2 0x1E24 JUMPI DUP5 DUP10 ADD MLOAD DUP3 SSTORE PUSH1 0x1 DUP3 ADD SWAP2 POP PUSH1 0x20 DUP6 ADD SWAP5 POP PUSH1 0x20 DUP2 ADD SWAP1 POP PUSH2 0x1DFF JUMP JUMPDEST DUP7 DUP4 LT ISZERO PUSH2 0x1E41 JUMPI DUP5 DUP10 ADD MLOAD PUSH2 0x1E3D PUSH1 0x1F DUP10 AND DUP3 PUSH2 0x1D4A JUMP JUMPDEST DUP4 SSTORE POP JUMPDEST PUSH1 0x1 PUSH1 0x2 DUP9 MUL ADD DUP9 SSTORE POP POP POP JUMPDEST POP POP POP POP POP POP JUMP JUMPDEST PUSH2 0x1E5F DUP2 PUSH2 0x140F JUMP JUMPDEST DUP3 MSTORE POP POP JUMP JUMPDEST DUP3 DUP2 DUP4 CALLDATACOPY PUSH1 0x0 DUP4 DUP4 ADD MSTORE POP POP POP JUMP JUMPDEST PUSH1 0x0 PUSH2 0x1E80 DUP4 DUP6 PUSH2 0x188A JUMP JUMPDEST SWAP4 POP PUSH2 0x1E8D DUP4 DUP6 DUP5 PUSH2 0x1E65 JUMP JUMPDEST PUSH2 0x1E96 DUP4 PUSH2 0x146E JUMP JUMPDEST DUP5 ADD SWAP1 POP SWAP4 SWAP3 POP POP POP JUMP JUMPDEST PUSH2 0x1EAA DUP2 PUSH2 0x151C JUMP JUMPDEST DUP3 MSTORE POP POP JUMP JUMPDEST PUSH1 0x0 PUSH1 0x60 DUP3 ADD SWAP1 POP PUSH2 0x1EC5 PUSH1 0x0 DUP4 ADD DUP8 PUSH2 0x1E56 JUMP JUMPDEST DUP2 DUP2 SUB PUSH1 0x20 DUP4 ADD MSTORE PUSH2 0x1ED8 DUP2 DUP6 DUP8 PUSH2 0x1E74 JUMP JUMPDEST SWAP1 POP PUSH2 0x1EE7 PUSH1 0x40 DUP4 ADD DUP5 PUSH2 0x1EA1 JUMP JUMPDEST SWAP6 SWAP5 POP POP POP POP POP JUMP JUMPDEST PUSH1 0x0 PUSH2 0x1EFB DUP3 PUSH2 0x13AC JUMP JUMPDEST SWAP2 POP PUSH32 0xFFFFFFFFFFFFFFFFFFFFFFFFFFFFFFFFFFFFFFFFFFFFFFFFFFFFFFFFFFFFFFFF DUP3 SUB PUSH2 0x1F2D JUMPI PUSH2 0x1F2C PUSH2 0x1907 JUMP JUMPDEST JUMPDEST PUSH1 0x1 DUP3 ADD SWAP1 POP SWAP2 SWAP1 POP JUMP JUMPDEST PUSH32 0x4261642076657273696F6E000000000000000000000000000000000000000000 PUSH1 0x0 DUP3 ADD MSTORE POP JUMP JUMPDEST PUSH1 0x0 PUSH2 0x1F6E PUSH1 0xB DUP4 PUSH2 0x188A JUMP JUMPDEST SWAP2 POP PUSH2 0x1F79 DUP3 PUSH2 0x1F38 JUMP JUMPDEST PUSH1 0x20 DUP3 ADD SWAP1 POP SWAP2 SWAP1 POP JUMP JUMPDEST PUSH1 0x0 PUSH1 0x20 DUP3 ADD SWAP1 POP DUP2 DUP2 SUB PUSH1 0x0 DUP4 ADD MSTORE PUSH2 0x1F9D DUP2 PUSH2 0x1F61 JUMP JUMPDEST SWAP1 POP SWAP2 SWAP1 POP JUMP JUMPDEST PUSH32 0x416C7265616479206C6F636B6564000000000000000000000000000000000000 PUSH1 0x0 DUP3 ADD MSTORE POP JUMP JUMPDEST PUSH1 0x0 PUSH2 0x1FDA PUSH1 0xE DUP4 PUSH2 0x188A JUMP JUMPDEST SWAP2 POP PUSH2 0x1FE5 DUP3 PUSH2 0x1FA4 JUMP JUMPDEST PUSH1 0x20 DUP3 ADD SWAP1 POP SWAP2 SWAP1 POP JUMP JUMPDEST PUSH1 0x0 PUSH1 0x20 DUP3 ADD SWAP1 POP DUP2 DUP2 SUB PUSH1 0x0 DUP4 ADD MSTORE PUSH2 0x2009 DUP2 PUSH2 0x1FCD JUMP JUMPDEST SWAP1 POP SWAP2 SWAP1 POP JUMP INVALID LOG2 PUSH5 0x6970667358 0x22 SLT KECCAK256 0x24 0xF8 RETURN 0x4D 0xDC PUSH6 0xA333C673F695 0xB7 0x23 AND 0xC7 0xE 0xE5 PUSH2 0x9633 0xB5 LOG3 SHL CHAINID 0xA7 0xEA MULMOD PUSH21 0x8C986664736F6C6343000814003300000000000000 "},"methodIdentifiers":{"appendVersion(uint256,bytes32,string)":"4a538155","getVersion(uint256,uint256)":"6987b075","latest(uint256)":"0007f4a0","lock(uint256)":"dd467064","nextMemorialId()":"18d852d8","owner()":"8da5cb5b","publish(bytes32,string,bool)":"641e8df3","renounceOwnership()":"715018a6","transferOwnership(address)":"f2fde38b","versionCount(uint256)":"03190e6d"}}}}}