{
  "_format": "hh-sol-artifact-1",
  "contractName": "MemorialRegistry",
  "sourceName": "contracts/MemorialRegistry.sol",
  "abi": [
    {
      "inputs": [],
      "stateMutability": "nonpayable",
      "type": "constructor"
    },
    {
      "inputs": [
        {
          "internalType": "address",
          "name": "owner",
          "type": "address"
        }
      ],
      "name": "OwnableInvalidOwner",
      "type": "error"
    },
    {
      "inputs": [
        {
          "internalType": "address",
          "name": "account",
          "type": "address"
        }
      ],
      "name": "OwnableUnauthorizedAccount",
      "type": "error"
    },
    {
      "anonymous": false,
      "inputs": [
        {
          "indexed": true,
          "internalType": "uint256",
          "name": "memorialId",
          "type": "uint256"
        }
      ],
      "name": "MemorialLocked",
      "type": "event"
    },
    {
      "anonymous": false,
      "inputs": [
        {
          "indexed": true,
          "internalType": "uint256",
          "name": "memorialId",
          "type": "uint256"
        },
        {
          "indexed": true,
          "internalType": "uint256",
          "name": "version",
          "type": "uint256"
        },
        {
          "indexed": false,
          "internalType": "bytes32",
          "name": "contentHash",
          "type": "bytes32"
        },
        {
          "indexed": false,
          "internalType": "string",
          "name": "storageURI",
          "type": "string"
        },
        {
          "indexed": true,
          "internalType": "address",
          "name": "publisher",
          "type": "address"
        },
        {
          "indexed": false,
          "internalType": "bool",
          "name": "locked",
          "type": "bool"
        }
      ],
      "name": "MemorialPublished",
      "type": "event"
    },
    {
      "anonymous": false,
      "inputs": [
        {
          "indexed": true,
          "internalType": "address",
          "name": "previousOwner",
          "type": "address"
        },
        {
          "indexed": true,
          "internalType": "address",
          "name": "newOwner",
          "type": "address"
        }
      ],
      "name": "OwnershipTransferred",
      "type": "event"
    },
    {
      "inputs": [
        {
          "internalType": "uint256",
          "name": "memorialId",
          "type": "uint256"
        },
        {
          "internalType": "bytes32",
          "name": "newContentHash",
          "type": "bytes32"
        },
        {
          "internalType": "string",
          "name": "newStorageURI",
          "type": "string"
        }
      ],
      "name": "appendVersion",
      "outputs": [
        {
          "internalType": "uint256",
          "name": "version",
          "type": "uint256"
        }
      ],
      "stateMutability": "nonpayable",
      "type": "function"
    },
    {
      "inputs": [
        {
          "internalType": "uint256",
          "name": "memorialId",
          "type": "uint256"
        },
        {
          "internalType": "uint256",
          "name": "version",
          "type": "uint256"
        }
      ],
      "name": "getVersion",
      "outputs": [
        {
          "components": [
            {
              "internalType": "bytes32",
              "name": "contentHash",
              "type": "bytes32"
            },
            {
              "internalType": "string",
              "name": "storageURI",
              "type": "string"
            },
            {
              "internalType": "address",
              "name": "publisher",
              "type": "address"
            },
            {
              "internalType": "uint64",
              "name": "timestamp",
              "type": "uint64"
            },
            {
              "internalType": "bool",
              "name": "locked",
              "type": "bool"
            }
          ],
          "internalType": "struct MemorialRegistry.Record",
          "name": "",
          "type": "tuple"
        }
      ],
      "stateMutability": "view",
      "type": "function"
    },
    {
      "inputs": [
        {
          "internalType": "uint256",
          "name": "memorialId",
          "type": "uint256"
        }
      ],
      "name": "latest",
      "outputs": [
        {
          "components": [
            {
              "internalType": "bytes32",
              "name": "contentHash",
              "type": "bytes32"
            },
            {
              "internalType": "string",
              "name": "storageURI",
              "type": "string"
            },
            {
              "internalType": "address",
              "name": "publisher",
              "type": "address"
            },
            {
              "internalType": "uint64",
              "name": "timestamp",
              "type": "uint64"
            },
            {
              "internalType": "bool",
              "name": "locked",
              "type": "bool"
            }
          ],
          "internalType": "struct MemorialRegistry.Record",
          "name": "",
          "type": "tuple"
        }
      ],
      "stateMutability": "view",
      "type": "function"
    },
    {
      "inputs": [
        {
          "internalType": "uint256",
          "name": "memorialId",
          "type": "uint256"
        }
      ],
      "name": "lock",
      "outputs": [],
      "stateMutability": "nonpayable",
      "type": "function"
    },
    {
      "inputs": [],
      "name": "nextMemorialId",
      "outputs": [
        {
          "internalType": "uint256",
          "name": "",
          "type": "uint256"
        }
      ],
      "stateMutability": "view",
      "type": "function"
    },
    {
      "inputs": [],
      "name": "owner",
      "outputs": [
        {
          "internalType": "address",
          "name": "",
          "type": "address"
        }
      ],
      "stateMutability": "view",
      "type": "function"
    },
    {
      "inputs": [
        {
          "internalType": "bytes32",
          "name": "contentHash",
          "type": "bytes32"
        },
        {
          "internalType": "string",
          "name": "storageURI",
          "type": "string"
        },
        {
          "internalType": "bool",
          "name": "lockImmediately",
          "type": "bool"
        }
      ],
      "name": "publish",
      "outputs": [
        {
          "internalType": "uint256",
          "name": "memorialId",
          "type": "uint256"
        },
        {
          "internalType": "uint256",
          "name": "version",
          "type": "uint256"
        }
      ],
      "stateMutability": "nonpayable",
      "type": "function"
    },
    {
      "inputs": [],
      "name": "renounceOwnership",
      "outputs": [],
      "stateMutability": "nonpayable",
      "type": "function"
    },
    {
      "inputs": [
        {
          "internalType": "address",
          "name": "newOwner",
          "type": "address"
        }
      ],
      "name": "transferOwnership",
      "outputs": [],
      "stateMutability": "nonpayable",
      "type": "function"
    },
    {
      "inputs": [
        {
          "internalType": "uint256",
          "name": "memorialId",
          "type": "uint256"
        }
      ],
      "name": "versionCount",
      "outputs": [
        {
          "internalType": "uint256",
          "name": "",
          "type": "uint256"
        }
      ],
      "stateMutability": "view",
      "type": "function"
    }
  ],
  "bytecode": "0x608060405260016002553480156200001657600080fd5b5033600073ffffffffffffffffffffffffffffffffffffffff168173ffffffffffffffffffffffffffffffffffffffff16036200008d5760006040517f1e4fbdf7000000000000000000000000000000000000000000000000000000008152600401620000849190620001ae565b60405180910390fd5b6200009e81620000a560201b60201c565b50620001cb565b60008060009054906101000a900473ffffffffffffffffffffffffffffffffffffffff169050816000806101000a81548173ffffffffffffffffffffffffffffffffffffffff021916908373ffffffffffffffffffffffffffffffffffffffff1602179055508173ffffffffffffffffffffffffffffffffffffffff168173ffffffffffffffffffffffffffffffffffffffff167f8be0079c531659141344cd1fd0a4f28419497f9722a3daafe3b4186f6b6457e060405160405180910390a35050565b600073ffffffffffffffffffffffffffffffffffffffff82169050919050565b6000620001968262000169565b9050919050565b620001a88162000189565b82525050565b6000602082019050620001c560008301846200019d565b92915050565b61204680620001db6000396000f3fe608060405234801561001057600080fd5b506004361061009d5760003560e01c80636987b075116100665780636987b07514610181578063715018a6146101b15780638da5cb5b146101bb578063dd467064146101d9578063f2fde38b146101f55761009d565b806207f4a0146100a257806303190e6d146100d257806318d852d8146101025780634a53815514610120578063641e8df314610150575b600080fd5b6100bc60048036038101906100b791906113e2565b610211565b6040516100c991906115ad565b60405180910390f35b6100ec60048036038101906100e791906113e2565b610419565b6040516100f991906115de565b60405180910390f35b61010a610494565b60405161011791906115de565b60405180910390f35b61013a6004803603810190610135919061168a565b61049a565b60405161014791906115de565b60405180910390f35b61016a6004803603810190610165919061172a565b610a13565b60405161017892919061179e565b60405180910390f35b61019b600480360381019061019691906117c7565b610cd6565b6040516101a891906115ad565b60405180910390f35b6101b9610f16565b005b6101c3610f2a565b6040516101d09190611816565b60405180910390f35b6101f360048036038101906101ee91906113e2565b610f53565b005b61020f600480360381019061020a919061185d565b611175565b005b61021961134e565b816000600160008381526020019081526020016000208054905011610273576040517f08c379a000000000000000000000000000000000000000000000000000000000815260040161026a906118e7565b60405180910390fd5b600160008481526020019081526020016000206001806000868152602001908152602001600020805490506102a89190611936565b815481106102b9576102b861196a565b5b90600052602060002090600302016040518060a0016040529081600082015481526020016001820180546102ec906119c8565b80601f0160208091040260200160405190810160405280929190818152602001828054610318906119c8565b80156103655780601f1061033a57610100808354040283529160200191610365565b820191906000526020600020905b81548152906001019060200180831161034857829003601f168201915b505050505081526020016002820160009054906101000a900473ffffffffffffffffffffffffffffffffffffffff1673ffffffffffffffffffffffffffffffffffffffff1673ffffffffffffffffffffffffffffffffffffffff1681526020016002820160149054906101000a900467ffffffffffffffff1667ffffffffffffffff1667ffffffffffffffff16815260200160028201601c9054906101000a900460ff161515151581525050915050919050565b6000816000600160008381526020019081526020016000208054905011610475576040517f08c379a000000000000000000000000000000000000000000000000000000000815260040161046c906118e7565b60405180910390fd5b6001600084815260200190815260200160002080549050915050919050565b60025481565b60008460006001600083815260200190815260200160002080549050116104f6576040517f08c379a00000000000000000000000000000000000000000000000000000000081526004016104ed906118e7565b60405180910390fd5b60006001600088815260200190815260200160002060018060008a81526020019081526020016000208054905061052d9190611936565b8154811061053e5761053d61196a565b5b90600052602060002090600302016040518060a001604052908160008201548152602001600182018054610571906119c8565b80601f016020809104026020016040519081016040528092919081815260200182805461059d906119c8565b80156105ea5780601f106105bf576101008083540402835291602001916105ea565b820191906000526020600020905b8154815290600101906020018083116105cd57829003601f168201915b505050505081526020016002820160009054906101000a900473ffffffffffffffffffffffffffffffffffffffff1673ffffffffffffffffffffffffffffffffffffffff1673ffffffffffffffffffffffffffffffffffffffff1681526020016002820160149054906101000a900467ffffffffffffffff1667ffffffffffffffff1667ffffffffffffffff16815260200160028201601c9054906101000a900460ff16151515158152505090508060800151156106dd576040517f08c379a00000000000000000000000000000000000000000000000000000000081526004016106d490611a45565b60405180910390fd5b806040015173ffffffffffffffffffffffffffffffffffffffff163373ffffffffffffffffffffffffffffffffffffffff16148061074d575061071e610f2a565b73ffffffffffffffffffffffffffffffffffffffff163373ffffffffffffffffffffffffffffffffffffffff16145b61078c576040517f08c379a000000000000000000000000000000000000000000000000000000000815260040161078390611ab1565b60405180910390fd5b6000801b86036107d1576040517f08c379a00000000000000000000000000000000000000000000000000000000081526004016107c890611b1d565b60405180910390fd5b60008585905011610817576040517f08c379a000000000000000000000000000000000000000000000000000000000815260040161080e90611b89565b60405180910390fd5b60016000888152602001908152602001600020805490509250600160008881526020019081526020016000206040518060a0016040528088815260200187878080601f016020809104026020016040519081016040528093929190818152602001838380828437600081840152601f19601f8201169050808301925050505050505081526020013373ffffffffffffffffffffffffffffffffffffffff1681526020014267ffffffffffffffff1681526020016000151581525090806001815401808255809150506001900390600052602060002090600302016000909190919091506000820151816000015560208201518160010190816109199190611d84565b5060408201518160020160006101000a81548173ffffffffffffffffffffffffffffffffffffffff021916908373ffffffffffffffffffffffffffffffffffffffff16021790555060608201518160020160146101000a81548167ffffffffffffffff021916908367ffffffffffffffff160217905550608082015181600201601c6101000a81548160ff02191690831515021790555050503373ffffffffffffffffffffffffffffffffffffffff1683887fd77fe84d4f2a61fe0f7d451ae99d1eab022f54872f6dc94df8a39f425d574fcd8989896000604051610a019493929190611eb0565b60405180910390a45050949350505050565b6000806000801b8603610a5b576040517f08c379a0000000000000000000000000000000000000000000000000000000008152600401610a5290611b1d565b60405180910390fd5b60008585905011610aa1576040517f08c379a0000000000000000000000000000000000000000000000000000000008152600401610a9890611b89565b60405180910390fd5b60026000815480929190610ab490611ef0565b919050559150600160008381526020019081526020016000206040518060a0016040528088815260200187878080601f016020809104026020016040519081016040528093929190818152602001838380828437600081840152601f19601f8201169050808301925050505050505081526020013373ffffffffffffffffffffffffffffffffffffffff1681526020014267ffffffffffffffff1681526020018515158152509080600181540180825580915050600190039060005260206000209060030201600090919091909150600082015181600001556020820151816001019081610ba29190611d84565b5060408201518160020160006101000a81548173ffffffffffffffffffffffffffffffffffffffff021916908373ffffffffffffffffffffffffffffffffffffffff16021790555060608201518160020160146101000a81548167ffffffffffffffff021916908367ffffffffffffffff160217905550608082015181600201601c6101000a81548160ff02191690831515021790555050503373ffffffffffffffffffffffffffffffffffffffff166000837fd77fe84d4f2a61fe0f7d451ae99d1eab022f54872f6dc94df8a39f425d574fcd89898989604051610c8a9493929190611eb0565b60405180910390a48215610cc657817ffd295620abd5998c47c7096c65bf6d4a3d7b026de9bcc55154df280a7976e17360405160405180910390a25b8160009150915094509492505050565b610cde61134e565b826000600160008381526020019081526020016000208054905011610d38576040517f08c379a0000000000000000000000000000000000000000000000000000000008152600401610d2f906118e7565b60405180910390fd5b60016000858152602001908152602001600020805490508310610d90576040517f08c379a0000000000000000000000000000000000000000000000000000000008152600401610d8790611f84565b60405180910390fd5b600160008581526020019081526020016000208381548110610db557610db461196a565b5b90600052602060002090600302016040518060a001604052908160008201548152602001600182018054610de8906119c8565b80601f0160208091040260200160405190810160405280929190818152602001828054610e14906119c8565b8015610e615780601f10610e3657610100808354040283529160200191610e61565b820191906000526020600020905b815481529060010190602001808311610e4457829003601f168201915b505050505081526020016002820160009054906101000a900473ffffffffffffffffffffffffffffffffffffffff1673ffffffffffffffffffffffffffffffffffffffff1673ffffffffffffffffffffffffffffffffffffffff1681526020016002820160149054906101000a900467ffffffffffffffff1667ffffffffffffffff1667ffffffffffffffff16815260200160028201601c9054906101000a900460ff16151515158152505091505092915050565b610f1e6111fb565b610f286000611282565b565b60008060009054906101000a900473ffffffffffffffffffffffffffffffffffffffff16905090565b806000600160008381526020019081526020016000208054905011610fad576040517f08c379a0000000000000000000000000000000000000000000000000000000008152600401610fa4906118e7565b60405180910390fd5b600060016000848152602001908152602001600020600180600086815260200190815260200160002080549050610fe49190611936565b81548110610ff557610ff461196a565b5b9060005260206000209060030201905080600201601c9054906101000a900460ff1615611057576040517f08c379a000000000000000000000000000000000000000000000000000000000815260040161104e90611ff0565b60405180910390fd5b8060020160009054906101000a900473ffffffffffffffffffffffffffffffffffffffff1673ffffffffffffffffffffffffffffffffffffffff163373ffffffffffffffffffffffffffffffffffffffff1614806110e757506110b8610f2a565b73ffffffffffffffffffffffffffffffffffffffff163373ffffffffffffffffffffffffffffffffffffffff16145b611126576040517f08c379a000000000000000000000000000000000000000000000000000000000815260040161111d90611ab1565b60405180910390fd5b600181600201601c6101000a81548160ff021916908315150217905550827ffd295620abd5998c47c7096c65bf6d4a3d7b026de9bcc55154df280a7976e17360405160405180910390a2505050565b61117d6111fb565b600073ffffffffffffffffffffffffffffffffffffffff168173ffffffffffffffffffffffffffffffffffffffff16036111ef5760006040517f1e4fbdf70000000000000000000000000000000000000000000000000000000081526004016111e69190611816565b60405180910390fd5b6111f881611282565b50565b611203611346565b73ffffffffffffffffffffffffffffffffffffffff16611221610f2a565b73ffffffffffffffffffffffffffffffffffffffff161461128057611244611346565b6040517f118cdaa70000000000000000000000000000000000000000000000000000000081526004016112779190611816565b60405180910390fd5b565b60008060009054906101000a900473ffffffffffffffffffffffffffffffffffffffff169050816000806101000a81548173ffffffffffffffffffffffffffffffffffffffff021916908373ffffffffffffffffffffffffffffffffffffffff1602179055508173ffffffffffffffffffffffffffffffffffffffff168173ffffffffffffffffffffffffffffffffffffffff167f8be0079c531659141344cd1fd0a4f28419497f9722a3daafe3b4186f6b6457e060405160405180910390a35050565b600033905090565b6040518060a001604052806000801916815260200160608152602001600073ffffffffffffffffffffffffffffffffffffffff168152602001600067ffffffffffffffff1681526020016000151581525090565b600080fd5b600080fd5b6000819050919050565b6113bf816113ac565b81146113ca57600080fd5b50565b6000813590506113dc816113b6565b92915050565b6000602082840312156113f8576113f76113a2565b5b6000611406848285016113cd565b91505092915050565b6000819050919050565b6114228161140f565b82525050565b600081519050919050565b600082825260208201905092915050565b60005b83811015611462578082015181840152602081019050611447565b60008484015250505050565b6000601f19601f8301169050919050565b600061148a82611428565b6114948185611433565b93506114a4818560208601611444565b6114ad8161146e565b840191505092915050565b600073ffffffffffffffffffffffffffffffffffffffff82169050919050565b60006114e3826114b8565b9050919050565b6114f3816114d8565b82525050565b600067ffffffffffffffff82169050919050565b611516816114f9565b82525050565b60008115159050919050565b6115318161151c565b82525050565b600060a08301600083015161154f6000860182611419565b5060208301518482036020860152611567828261147f565b915050604083015161157c60408601826114ea565b50606083015161158f606086018261150d565b5060808301516115a26080860182611528565b508091505092915050565b600060208201905081810360008301526115c78184611537565b905092915050565b6115d8816113ac565b82525050565b60006020820190506115f360008301846115cf565b92915050565b6116028161140f565b811461160d57600080fd5b50565b60008135905061161f816115f9565b92915050565b600080fd5b600080fd5b600080fd5b60008083601f84011261164a57611649611625565b5b8235905067ffffffffffffffff8111156116675761166661162a565b5b6020830191508360018202830111156116835761168261162f565b5b9250929050565b600080600080606085870312156116a4576116a36113a2565b5b60006116b2878288016113cd565b94505060206116c387828801611610565b935050604085013567ffffffffffffffff8111156116e4576116e36113a7565b5b6116f087828801611634565b925092505092959194509250565b6117078161151c565b811461171257600080fd5b50565b600081359050611724816116fe565b92915050565b60008060008060608587031215611744576117436113a2565b5b600061175287828801611610565b945050602085013567ffffffffffffffff811115611773576117726113a7565b5b61177f87828801611634565b9350935050604061179287828801611715565b91505092959194509250565b60006040820190506117b360008301856115cf565b6117c060208301846115cf565b9392505050565b600080604083850312156117de576117dd6113a2565b5b60006117ec858286016113cd565b92505060206117fd858286016113cd565b9150509250929050565b611810816114d8565b82525050565b600060208201905061182b6000830184611807565b92915050565b61183a816114d8565b811461184557600080fd5b50565b60008135905061185781611831565b92915050565b600060208284031215611873576118726113a2565b5b600061188184828501611848565b91505092915050565b600082825260208201905092915050565b7f4d656d6f7269616c3a206e6f7420666f756e6400000000000000000000000000600082015250565b60006118d160138361188a565b91506118dc8261189b565b602082019050919050565b60006020820190508181036000830152611900816118c4565b9050919050565b7f4e487b7100000000000000000000000000000000000000000000000000000000600052601160045260246000fd5b6000611941826113ac565b915061194c836113ac565b925082820390508181111561196457611963611907565b5b92915050565b7f4e487b7100000000000000000000000000000000000000000000000000000000600052603260045260246000fd5b7f4e487b7100000000000000000000000000000000000000000000000000000000600052602260045260246000fd5b600060028204905060018216806119e057607f821691505b6020821081036119f3576119f2611999565b5b50919050565b7f4d656d6f7269616c206973206c6f636b65640000000000000000000000000000600082015250565b6000611a2f60128361188a565b9150611a3a826119f9565b602082019050919050565b60006020820190508181036000830152611a5e81611a22565b9050919050565b7f4e6f7420617574686f72697a6564000000000000000000000000000000000000600082015250565b6000611a9b600e8361188a565b9150611aa682611a65565b602082019050919050565b60006020820190508181036000830152611aca81611a8e565b9050919050565b7f496e76616c696420686173680000000000000000000000000000000000000000600082015250565b6000611b07600c8361188a565b9150611b1282611ad1565b602082019050919050565b60006020820190508181036000830152611b3681611afa565b9050919050565b7f496e76616c696420555249000000000000000000000000000000000000000000600082015250565b6000611b73600b8361188a565b9150611b7e82611b3d565b602082019050919050565b60006020820190508181036000830152611ba281611b66565b9050919050565b7f4e487b7100000000000000000000000000000000000000000000000000000000600052604160045260246000fd5b60008190508160005260206000209050919050565b60006020601f8301049050919050565b600082821b905092915050565b600060088302611c3a7fffffffffffffffffffffffffffffffffffffffffffffffffffffffffffffffff82611bfd565b611c448683611bfd565b95508019841693508086168417925050509392505050565b6000819050919050565b6000611c81611c7c611c77846113ac565b611c5c565b6113ac565b9050919050565b6000819050919050565b611c9b83611c66565b611caf611ca782611c88565b848454611c0a565b825550505050565b600090565b611cc4611cb7565b611ccf818484611c92565b505050565b5b81811015611cf357611ce8600082611cbc565b600181019050611cd5565b5050565b601f821115611d3857611d0981611bd8565b611d1284611bed565b81016020851015611d21578190505b611d35611d2d85611bed565b830182611cd4565b50505b505050565b600082821c905092915050565b6000611d5b60001984600802611d3d565b1980831691505092915050565b6000611d748383611d4a565b9150826002028217905092915050565b611d8d82611428565b67ffffffffffffffff811115611da657611da5611ba9565b5b611db082546119c8565b611dbb828285611cf7565b600060209050601f831160018114611dee5760008415611ddc578287015190505b611de68582611d68565b865550611e4e565b601f198416611dfc86611bd8565b60005b82811015611e2457848901518255600182019150602085019450602081019050611dff565b86831015611e415784890151611e3d601f891682611d4a565b8355505b6001600288020188555050505b505050505050565b611e5f8161140f565b82525050565b82818337600083830152505050565b6000611e80838561188a565b9350611e8d838584611e65565b611e968361146e565b840190509392505050565b611eaa8161151c565b82525050565b6000606082019050611ec56000830187611e56565b8181036020830152611ed8818587611e74565b9050611ee76040830184611ea1565b95945050505050565b6000611efb826113ac565b91507fffffffffffffffffffffffffffffffffffffffffffffffffffffffffffffffff8203611f2d57611f2c611907565b5b600182019050919050565b7f4261642076657273696f6e000000000000000000000000000000000000000000600082015250565b6000611f6e600b8361188a565b9150611f7982611f38565b602082019050919050565b60006020820190508181036000830152611f9d81611f61565b9050919050565b7f416c7265616479206c6f636b6564000000000000000000000000000000000000600082015250565b6000611fda600e8361188a565b9150611fe582611fa4565b602082019050919050565b6000602082019050818103600083015261200981611fcd565b905091905056fea264697066735822122024f8f34ddc65a333c673f695b72316c70ee5619633b5a31b46a7ea09748c986664736f6c63430008140033",
  "linkReferences": {},
  "deployedLinkReferences": {}
}