{
  "_format": "hh-sol-artifact-1",
  "contractName": "RemembranceBadges",
  "sourceName": "contracts/RemembranceBadges.sol",
  "abi": [
    {
      "inputs": [
        {
          "internalType": "string",
          "name": "baseURI",
          "type": "string"
        },
        {
          "internalType": "address",
          "name": "admin",
          "type": "address"
        }
      ],
      "stateMutability": "nonpayable",
      "type": "constructor"
    },
    {
      "inputs": [],
      "name": "AccessControlBadConfirmation",
      "type": "error"
    },
    {
      "inputs": [
        {
          "internalType": "address",
          "name": "account",
          "type": "address"
        },
        {
          "internalType": "bytes32",
          "name": "neededRole",
          "type": "bytes32"
        }
      ],
      "name": "AccessControlUnauthorizedAccount",
      "type": "error"
    },
    {
      "inputs": [
        {
          "internalType": "address",
          "name": "sender",
          "type": "address"
        },
        {
          "internalType": "uint256",
          "name": "balance",
          "type": "uint256"
        },
        {
          "internalType": "uint256",
          "name": "needed",
          "type": "uint256"
        },
        {
          "internalType": "uint256",
          "name": "tokenId",
          "type": "uint256"
        }
      ],
      "name": "ERC1155InsufficientBalance",
      "type": "error"
    },
    {
      "inputs": [
        {
          "internalType": "address",
          "name": "approver",
          "type": "address"
        }
      ],
      "name": "ERC1155InvalidApprover",
      "type": "error"
    },
    {
      "inputs": [
        {
          "internalType": "uint256",
          "name": "idsLength",
          "type": "uint256"
        },
        {
          "internalType": "uint256",
          "name": "valuesLength",
          "type": "uint256"
        }
      ],
      "name": "ERC1155InvalidArrayLength",
      "type": "error"
    },
    {
      "inputs": [
        {
          "internalType": "address",
          "name": "operator",
          "type": "address"
        }
      ],
      "name": "ERC1155InvalidOperator",
      "type": "error"
    },
    {
      "inputs": [
        {
          "internalType": "address",
          "name": "receiver",
          "type": "address"
        }
      ],
      "name": "ERC1155InvalidReceiver",
      "type": "error"
    },
    {
      "inputs": [
        {
          "internalType": "address",
          "name": "sender",
          "type": "address"
        }
      ],
      "name": "ERC1155InvalidSender",
      "type": "error"
    },
    {
      "inputs": [
        {
          "internalType": "address",
          "name": "operator",
          "type": "address"
        },
        {
          "internalType": "address",
          "name": "owner",
          "type": "address"
        }
      ],
      "name": "ERC1155MissingApprovalForAll",
      "type": "error"
    },
    {
      "anonymous": false,
      "inputs": [
        {
          "indexed": true,
          "internalType": "address",
          "name": "account",
          "type": "address"
        },
        {
          "indexed": true,
          "internalType": "address",
          "name": "operator",
          "type": "address"
        },
        {
          "indexed": false,
          "internalType": "bool",
          "name": "approved",
          "type": "bool"
        }
      ],
      "name": "ApprovalForAll",
      "type": "event"
    },
    {
      "anonymous": false,
      "inputs": [
        {
          "indexed": true,
          "internalType": "address",
          "name": "account",
          "type": "address"
        },
        {
          "indexed": true,
          "internalType": "uint256",
          "name": "memorialId",
          "type": "uint256"
        },
        {
          "indexed": true,
          "internalType": "uint16",
          "name": "year",
          "type": "uint16"
        },
        {
          "indexed": false,
          "internalType": "uint256",
          "name": "badgeId",
          "type": "uint256"
        }
      ],
      "name": "CandleLit",
      "type": "event"
    },
    {
      "anonymous": false,
      "inputs": [
        {
          "indexed": true,
          "internalType": "bytes32",
          "name": "role",
          "type": "bytes32"
        },
        {
          "indexed": true,
          "internalType": "bytes32",
          "name": "previousAdminRole",
          "type": "bytes32"
        },
        {
          "indexed": true,
          "internalType": "bytes32",
          "name": "newAdminRole",
          "type": "bytes32"
        }
      ],
      "name": "RoleAdminChanged",
      "type": "event"
    },
    {
      "anonymous": false,
      "inputs": [
        {
          "indexed": true,
          "internalType": "bytes32",
          "name": "role",
          "type": "bytes32"
        },
        {
          "indexed": true,
          "internalType": "address",
          "name": "account",
          "type": "address"
        },
        {
          "indexed": true,
          "internalType": "address",
          "name": "sender",
          "type": "address"
        }
      ],
      "name": "RoleGranted",
      "type": "event"
    },
    {
      "anonymous": false,
      "inputs": [
        {
          "indexed": true,
          "internalType": "bytes32",
          "name": "role",
          "type": "bytes32"
        },
        {
          "indexed": true,
          "internalType": "address",
          "name": "account",
          "type": "address"
        },
        {
          "indexed": true,
          "internalType": "address",
          "name": "sender",
          "type": "address"
        }
      ],
      "name": "RoleRevoked",
      "type": "event"
    },
    {
      "anonymous": false,
      "inputs": [
        {
          "indexed": true,
          "internalType": "address",
          "name": "operator",
          "type": "address"
        },
        {
          "indexed": true,
          "internalType": "address",
          "name": "from",
          "type": "address"
        },
        {
          "indexed": true,
          "internalType": "address",
          "name": "to",
          "type": "address"
        },
        {
          "indexed": false,
          "internalType": "uint256[]",
          "name": "ids",
          "type": "uint256[]"
        },
        {
          "indexed": false,
          "internalType": "uint256[]",
          "name": "values",
          "type": "uint256[]"
        }
      ],
      "name": "TransferBatch",
      "type": "event"
    },
    {
      "anonymous": false,
      "inputs": [
        {
          "indexed": true,
          "internalType": "address",
          "name": "operator",
          "type": "address"
        },
        {
          "indexed": true,
          "internalType": "address",
          "name": "from",
          "type": "address"
        },
        {
          "indexed": true,
          "internalType": "address",
          "name": "to",
          "type": "address"
        },
        {
          "indexed": false,
          "internalType": "uint256",
          "name": "id",
          "type": "uint256"
        },
        {
          "indexed": false,
          "internalType": "uint256",
          "name": "value",
          "type": "uint256"
        }
      ],
      "name": "TransferSingle",
      "type": "event"
    },
    {
      "anonymous": false,
      "inputs": [
        {
          "indexed": false,
          "internalType": "string",
          "name": "value",
          "type": "string"
        },
        {
          "indexed": true,
          "internalType": "uint256",
          "name": "id",
          "type": "uint256"
        }
      ],
      "name": "URI",
      "type": "event"
    },
    {
      "inputs": [],
      "name": "DEFAULT_ADMIN_ROLE",
      "outputs": [
        {
          "internalType": "bytes32",
          "name": "",
          "type": "bytes32"
        }
      ],
      "stateMutability": "view",
      "type": "function"
    },
    {
      "inputs": [],
      "name": "MINTER_ROLE",
      "outputs": [
        {
          "internalType": "bytes32",
          "name": "",
          "type": "bytes32"
        }
      ],
      "stateMutability": "view",
      "type": "function"
    },
    {
      "inputs": [
        {
          "internalType": "address",
          "name": "from",
          "type": "address"
        },
        {
          "internalType": "uint256",
          "name": "memorialId",
          "type": "uint256"
        },
        {
          "internalType": "uint16",
          "name": "year",
          "type": "uint16"
        }
      ],
      "name": "adminBurn",
      "outputs": [],
      "stateMutability": "nonpayable",
      "type": "function"
    },
    {
      "inputs": [
        {
          "internalType": "uint256",
          "name": "memorialId",
          "type": "uint256"
        },
        {
          "internalType": "uint16",
          "name": "year",
          "type": "uint16"
        }
      ],
      "name": "badgeIdFor",
      "outputs": [
        {
          "internalType": "uint256",
          "name": "",
          "type": "uint256"
        }
      ],
      "stateMutability": "pure",
      "type": "function"
    },
    {
      "inputs": [
        {
          "internalType": "address",
          "name": "account",
          "type": "address"
        },
        {
          "internalType": "uint256",
          "name": "id",
          "type": "uint256"
        }
      ],
      "name": "balanceOf",
      "outputs": [
        {
          "internalType": "uint256",
          "name": "",
          "type": "uint256"
        }
      ],
      "stateMutability": "view",
      "type": "function"
    },
    {
      "inputs": [
        {
          "internalType": "address[]",
          "name": "accounts",
          "type": "address[]"
        },
        {
          "internalType": "uint256[]",
          "name": "ids",
          "type": "uint256[]"
        }
      ],
      "name": "balanceOfBatch",
      "outputs": [
        {
          "internalType": "uint256[]",
          "name": "",
          "type": "uint256[]"
        }
      ],
      "stateMutability": "view",
      "type": "function"
    },
    {
      "inputs": [
        {
          "internalType": "uint256",
          "name": "",
          "type": "uint256"
        }
      ],
      "name": "candlesForMemorial",
      "outputs": [
        {
          "internalType": "uint256",
          "name": "",
          "type": "uint256"
        }
      ],
      "stateMutability": "view",
      "type": "function"
    },
    {
      "inputs": [
        {
          "internalType": "address",
          "name": "",
          "type": "address"
        },
        {
          "internalType": "uint256",
          "name": "",
          "type": "uint256"
        }
      ],
      "name": "claimed",
      "outputs": [
        {
          "internalType": "bool",
          "name": "",
          "type": "bool"
        }
      ],
      "stateMutability": "view",
      "type": "function"
    },
    {
      "inputs": [
        {
          "internalType": "bytes32",
          "name": "role",
          "type": "bytes32"
        }
      ],
      "name": "getRoleAdmin",
      "outputs": [
        {
          "internalType": "bytes32",
          "name": "",
          "type": "bytes32"
        }
      ],
      "stateMutability": "view",
      "type": "function"
    },
    {
      "inputs": [
        {
          "internalType": "bytes32",
          "name": "role",
          "type": "bytes32"
        },
        {
          "internalType": "address",
          "name": "account",
          "type": "address"
        }
      ],
      "name": "grantRole",
      "outputs": [],
      "stateMutability": "nonpayable",
      "type": "function"
    },
    {
      "inputs": [
        {
          "internalType": "bytes32",
          "name": "role",
          "type": "bytes32"
        },
        {
          "internalType": "address",
          "name": "account",
          "type": "address"
        }
      ],
      "name": "hasRole",
      "outputs": [
        {
          "internalType": "bool",
          "name": "",
          "type": "bool"
        }
      ],
      "stateMutability": "view",
      "type": "function"
    },
    {
      "inputs": [
        {
          "internalType": "address",
          "name": "account",
          "type": "address"
        },
        {
          "internalType": "address",
          "name": "operator",
          "type": "address"
        }
      ],
      "name": "isApprovedForAll",
      "outputs": [
        {
          "internalType": "bool",
          "name": "",
          "type": "bool"
        }
      ],
      "stateMutability": "view",
      "type": "function"
    },
    {
      "inputs": [
        {
          "internalType": "address",
          "name": "to",
          "type": "address"
        },
        {
          "internalType": "uint256",
          "name": "memorialId",
          "type": "uint256"
        },
        {
          "internalType": "uint16",
          "name": "year",
          "type": "uint16"
        }
      ],
      "name": "lightCandle",
      "outputs": [],
      "stateMutability": "nonpayable",
      "type": "function"
    },
    {
      "inputs": [
        {
          "internalType": "bytes32",
          "name": "role",
          "type": "bytes32"
        },
        {
          "internalType": "address",
          "name": "callerConfirmation",
          "type": "address"
        }
      ],
      "name": "renounceRole",
      "outputs": [],
      "stateMutability": "nonpayable",
      "type": "function"
    },
    {
      "inputs": [
        {
          "internalType": "bytes32",
          "name": "role",
          "type": "bytes32"
        },
        {
          "internalType": "address",
          "name": "account",
          "type": "address"
        }
      ],
      "name": "revokeRole",
      "outputs": [],
      "stateMutability": "nonpayable",
      "type": "function"
    },
    {
      "inputs": [
        {
          "internalType": "address",
          "name": "",
          "type": "address"
        },
        {
          "internalType": "address",
          "name": "",
          "type": "address"
        },
        {
          "internalType": "uint256[]",
          "name": "",
          "type": "uint256[]"
        },
        {
          "internalType": "uint256[]",
          "name": "",
          "type": "uint256[]"
        },
        {
          "internalType": "bytes",
          "name": "",
          "type": "bytes"
        }
      ],
      "name": "safeBatchTransferFrom",
      "outputs": [],
      "stateMutability": "nonpayable",
      "type": "function"
    },
    {
      "inputs": [
        {
          "internalType": "address",
          "name": "",
          "type": "address"
        },
        {
          "internalType": "address",
          "name": "",
          "type": "address"
        },
        {
          "internalType": "uint256",
          "name": "",
          "type": "uint256"
        },
        {
          "internalType": "uint256",
          "name": "",
          "type": "uint256"
        },
        {
          "internalType": "bytes",
          "name": "",
          "type": "bytes"
        }
      ],
      "name": "safeTransferFrom",
      "outputs": [],
      "stateMutability": "nonpayable",
      "type": "function"
    },
    {
      "inputs": [
        {
          "internalType": "address",
          "name": "",
          "type": "address"
        },
        {
          "internalType": "bool",
          "name": "",
          "type": "bool"
        }
      ],
      "name": "setApprovalForAll",
      "outputs": [],
      "stateMutability": "nonpayable",
      "type": "function"
    },
    {
      "inputs": [
        {
          "internalType": "string",
          "name": "newUri",
          "type": "string"
        }
      ],
      "name": "setURI",
      "outputs": [],
      "stateMutability": "nonpayable",
      "type": "function"
    },
    {
      "inputs": [
        {
          "internalType": "bytes4",
          "name": "interfaceId",
          "type": "bytes4"
        }
      ],
      "name": "supportsInterface",
      "outputs": [
        {
          "internalType": "bool",
          "name": "",
          "type": "bool"
        }
      ],
      "stateMutability": "view",
      "type": "function"
    },
    {
      "inputs": [
        {
          "internalType": "uint256",
          "name": "",
          "type": "uint256"
        }
      ],
      "name": "totalHolders",
      "outputs": [
        {
          "internalType": "uint256",
          "name": "",
          "type": "uint256"
        }
      ],
      "stateMutability": "view",
      "type": "function"
    },
    {
      "inputs": [
        {
          "internalType": "uint256",
          "name": "",
          "type": "uint256"
        }
      ],
      "name": "uri",
      "outputs": [
        {
          "internalType": "string",
          "name": "",
          "type": "string"
        }
      ],
      "stateMutability": "view",
      "type": "function"
    }
  ],
  "bytecode": "0x60806040523480156200001157600080fd5b50604051620036ea380380620036ea83398181016040528101906200003791906200041f565b8162000049816200009b60201b60201c565b506200005f6000801b82620000b060201b60201c565b50620000927f9f2df0fed2c77648de5860a4cc508cd0818c85b8b8a1ab4ceeef8d981c8956a682620000b060201b60201c565b505050620007b7565b8060029081620000ac9190620006d0565b5050565b6000620000c48383620001b460201b60201c565b620001a95760016003600085815260200190815260200160002060000160008473ffffffffffffffffffffffffffffffffffffffff1673ffffffffffffffffffffffffffffffffffffffff16815260200190815260200160002060006101000a81548160ff021916908315150217905550620001456200021f60201b60201c565b73ffffffffffffffffffffffffffffffffffffffff168273ffffffffffffffffffffffffffffffffffffffff16847f2f8788117e7eff1d82e926ec794901d17c78024a50270940304540a733656f0d60405160405180910390a460019050620001ae565b600090505b92915050565b60006003600084815260200190815260200160002060000160008373ffffffffffffffffffffffffffffffffffffffff1673ffffffffffffffffffffffffffffffffffffffff16815260200190815260200160002060009054906101000a900460ff16905092915050565b600033905090565b6000604051905090565b600080fd5b600080fd5b600080fd5b600080fd5b6000601f19601f8301169050919050565b7f4e487b7100000000000000000000000000000000000000000000000000000000600052604160045260246000fd5b620002908262000245565b810181811067ffffffffffffffff82111715620002b257620002b162000256565b5b80604052505050565b6000620002c762000227565b9050620002d5828262000285565b919050565b600067ffffffffffffffff821115620002f857620002f762000256565b5b620003038262000245565b9050602081019050919050565b60005b838110156200033057808201518184015260208101905062000313565b60008484015250505050565b6000620003536200034d84620002da565b620002bb565b90508281526020810184848401111562000372576200037162000240565b5b6200037f84828562000310565b509392505050565b600082601f8301126200039f576200039e6200023b565b5b8151620003b18482602086016200033c565b91505092915050565b600073ffffffffffffffffffffffffffffffffffffffff82169050919050565b6000620003e782620003ba565b9050919050565b620003f981620003da565b81146200040557600080fd5b50565b6000815190506200041981620003ee565b92915050565b6000806040838503121562000439576200043862000231565b5b600083015167ffffffffffffffff8111156200045a576200045962000236565b5b620004688582860162000387565b92505060206200047b8582860162000408565b9150509250929050565b600081519050919050565b7f4e487b7100000000000000000000000000000000000000000000000000000000600052602260045260246000fd5b60006002820490506001821680620004d857607f821691505b602082108103620004ee57620004ed62000490565b5b50919050565b60008190508160005260206000209050919050565b60006020601f8301049050919050565b600082821b905092915050565b600060088302620005587fffffffffffffffffffffffffffffffffffffffffffffffffffffffffffffffff8262000519565b62000564868362000519565b95508019841693508086168417925050509392505050565b6000819050919050565b6000819050919050565b6000620005b1620005ab620005a5846200057c565b62000586565b6200057c565b9050919050565b6000819050919050565b620005cd8362000590565b620005e5620005dc82620005b8565b84845462000526565b825550505050565b600090565b620005fc620005ed565b62000609818484620005c2565b505050565b5b81811015620006315762000625600082620005f2565b6001810190506200060f565b5050565b601f82111562000680576200064a81620004f4565b620006558462000509565b8101602085101562000665578190505b6200067d620006748562000509565b8301826200060e565b50505b505050565b600082821c905092915050565b6000620006a56000198460080262000685565b1980831691505092915050565b6000620006c0838362000692565b9150826002028217905092915050565b620006db8262000485565b67ffffffffffffffff811115620006f757620006f662000256565b5b620007038254620004bf565b6200071082828562000635565b600060209050601f83116001811462000748576000841562000733578287015190505b6200073f8582620006b2565b865550620007af565b601f1984166200075886620004f4565b60005b8281101562000782578489015182556001820191506020850194506020810190506200075b565b86831015620007a257848901516200079e601f89168262000692565b8355505b6001600288020188555050505b505050505050565b612f2380620007c76000396000f3fe608060405234801561001057600080fd5b50600436106101415760003560e01c80635509dc1b116100b8578063a217fddf1161007c578063a217fddf146103ce578063a22cb465146103ec578063d539139314610408578063d547741f14610426578063e985e9c514610442578063f242432a1461047257610141565b80635509dc1b146103065780635ce695f1146103225780636eb2be00146103525780637bbdff8b1461038257806391d148541461039e57610141565b8063248a9ca31161010a578063248a9ca3146102225780632eb2c2d6146102525780632f2ff15d1461026e57806336568abe1461028a5780634dd6c8de146102a65780634e1273f4146102d657610141565b8062fdd58e1461014657806301ffc9a71461017657806302fe5305146101a65780630e89341c146101c257806313ba55df146101f2575b600080fd5b610160600480360381019061015b9190611b73565b61048e565b60405161016d9190611bc2565b60405180910390f35b610190600480360381019061018b9190611c35565b6104e8565b60405161019d9190611c7d565b60405180910390f35b6101c060048036038101906101bb9190611cfd565b6104fa565b005b6101dc60048036038101906101d79190611d4a565b610559565b6040516101e99190611e07565b60405180910390f35b61020c60048036038101906102079190611d4a565b6105ed565b6040516102199190611bc2565b60405180910390f35b61023c60048036038101906102379190611e5f565b610605565b6040516102499190611e9b565b60405180910390f35b61026c600480360381019061026791906120a9565b610625565b005b61028860048036038101906102839190612178565b610660565b005b6102a4600480360381019061029f9190612178565b610682565b005b6102c060048036038101906102bb9190611b73565b6106fd565b6040516102cd9190611c7d565b60405180910390f35b6102f060048036038101906102eb919061227b565b61072c565b6040516102fd91906123b1565b60405180910390f35b610320600480360381019061031b919061240d565b61083b565b005b61033c60048036038101906103379190612460565b6108b5565b6040516103499190611bc2565b60405180910390f35b61036c60048036038101906103679190611d4a565b6108eb565b6040516103799190611bc2565b60405180910390f35b61039c6004803603810190610397919061240d565b610903565b005b6103b860048036038101906103b39190612178565b610b7e565b6040516103c59190611c7d565b60405180910390f35b6103d6610be9565b6040516103e39190611e9b565b60405180910390f35b610406600480360381019061040191906124cc565b610bf0565b005b610410610c2b565b60405161041d9190611e9b565b60405180910390f35b610440600480360381019061043b9190612178565b610c4f565b005b61045c6004803603810190610457919061250c565b610c71565b6040516104699190611c7d565b60405180910390f35b61048c6004803603810190610487919061254c565b610d05565b005b600080600083815260200190815260200160002060008473ffffffffffffffffffffffffffffffffffffffff1673ffffffffffffffffffffffffffffffffffffffff16815260200190815260200160002054905092915050565b60006104f382610d40565b9050919050565b6000801b61050781610dba565b61055483838080601f016020809104026020016040519081016040528093929190818152602001838380828437600081840152601f19601f82011690508083019250505050505050610dce565b505050565b60606002805461056890612612565b80601f016020809104026020016040519081016040528092919081815260200182805461059490612612565b80156105e15780601f106105b6576101008083540402835291602001916105e1565b820191906000526020600020905b8154815290600101906020018083116105c457829003601f168201915b50505050509050919050565b60056020528060005260406000206000915090505481565b600060036000838152602001908152602001600020600101549050919050565b6040517f08c379a00000000000000000000000000000000000000000000000000000000081526004016106579061268f565b60405180910390fd5b61066982610605565b61067281610dba565b61067c8383610de1565b50505050565b61068a610ed3565b73ffffffffffffffffffffffffffffffffffffffff168173ffffffffffffffffffffffffffffffffffffffff16146106ee576040517f6697b23200000000000000000000000000000000000000000000000000000000815260040160405180910390fd5b6106f88282610edb565b505050565b60046020528160005260406000206020528060005260406000206000915091509054906101000a900460ff1681565b6060815183511461077857815183516040517f5b05999100000000000000000000000000000000000000000000000000000000815260040161076f9291906126af565b60405180910390fd5b6000835167ffffffffffffffff81111561079557610794611eb6565b5b6040519080825280602002602001820160405280156107c35781602001602082028036833780820191505090505b50905060005b8451811015610830576108006107e88287610fce90919063ffffffff16565b6107fb8387610fe290919063ffffffff16565b61048e565b828281518110610813576108126126d8565b5b6020026020010181815250508061082990612736565b90506107c9565b508091505092915050565b6000801b61084881610dba565b600061085484846108b5565b90506001610862868361048e565b146108a2576040517f08c379a0000000000000000000000000000000000000000000000000000000008152600401610899906127ca565b60405180910390fd5b6108ae85826001610ff6565b5050505050565b600082826040516020016108ca929190612898565b6040516020818303038152906040528051906020012060001c905092915050565b60066020528060005260406000206000915090505481565b7f9f2df0fed2c77648de5860a4cc508cd0818c85b8b8a1ab4ceeef8d981c8956a661092d81610dba565b600073ffffffffffffffffffffffffffffffffffffffff168473ffffffffffffffffffffffffffffffffffffffff160361099c576040517f08c379a00000000000000000000000000000000000000000000000000000000081526004016109939061291b565b60405180910390fd5b60006109a884846108b5565b9050600460008673ffffffffffffffffffffffffffffffffffffffff1673ffffffffffffffffffffffffffffffffffffffff168152602001908152602001600020600082815260200190815260200160002060009054906101000a900460ff1615610a48576040517f08c379a0000000000000000000000000000000000000000000000000000000008152600401610a3f90612987565b60405180910390fd5b6001600460008773ffffffffffffffffffffffffffffffffffffffff1673ffffffffffffffffffffffffffffffffffffffff168152602001908152602001600020600083815260200190815260200160002060006101000a81548160ff021916908315150217905550610acd858260016040518060200160405280600081525061109d565b6001600560008381526020019081526020016000206000828254610af191906129a7565b925050819055506001600660008681526020019081526020016000206000828254610b1c91906129a7565b925050819055508261ffff16848673ffffffffffffffffffffffffffffffffffffffff167fc5e4f97f4e1ac5c9db12a9e39353b3c61176f2578fe4145a469276997597fba184604051610b6f9190611bc2565b60405180910390a45050505050565b60006003600084815260200190815260200160002060000160008373ffffffffffffffffffffffffffffffffffffffff1673ffffffffffffffffffffffffffffffffffffffff16815260200190815260200160002060009054906101000a900460ff16905092915050565b6000801b81565b6040517f08c379a0000000000000000000000000000000000000000000000000000000008152600401610c2290612a27565b60405180910390fd5b7f9f2df0fed2c77648de5860a4cc508cd0818c85b8b8a1ab4ceeef8d981c8956a681565b610c5882610605565b610c6181610dba565b610c6b8383610edb565b50505050565b6000600160008473ffffffffffffffffffffffffffffffffffffffff1673ffffffffffffffffffffffffffffffffffffffff16815260200190815260200160002060008373ffffffffffffffffffffffffffffffffffffffff1673ffffffffffffffffffffffffffffffffffffffff16815260200190815260200160002060009054906101000a900460ff16905092915050565b6040517f08c379a0000000000000000000000000000000000000000000000000000000008152600401610d379061268f565b60405180910390fd5b60007f7965db0b000000000000000000000000000000000000000000000000000000007bffffffffffffffffffffffffffffffffffffffffffffffffffffffff1916827bffffffffffffffffffffffffffffffffffffffffffffffffffffffff19161480610db35750610db282611136565b5b9050919050565b610dcb81610dc6610ed3565b611218565b50565b8060029081610ddd9190612bf3565b5050565b6000610ded8383610b7e565b610ec85760016003600085815260200190815260200160002060000160008473ffffffffffffffffffffffffffffffffffffffff1673ffffffffffffffffffffffffffffffffffffffff16815260200190815260200160002060006101000a81548160ff021916908315150217905550610e65610ed3565b73ffffffffffffffffffffffffffffffffffffffff168273ffffffffffffffffffffffffffffffffffffffff16847f2f8788117e7eff1d82e926ec794901d17c78024a50270940304540a733656f0d60405160405180910390a460019050610ecd565b600090505b92915050565b600033905090565b6000610ee78383610b7e565b15610fc35760006003600085815260200190815260200160002060000160008473ffffffffffffffffffffffffffffffffffffffff1673ffffffffffffffffffffffffffffffffffffffff16815260200190815260200160002060006101000a81548160ff021916908315150217905550610f60610ed3565b73ffffffffffffffffffffffffffffffffffffffff168273ffffffffffffffffffffffffffffffffffffffff16847ff6391f5c32d9c69d2a47ea670b442974b53935d1edc7fd64eb21e047a839171b60405160405180910390a460019050610fc8565b600090505b92915050565b600060208202602084010151905092915050565b600060208202602084010151905092915050565b600073ffffffffffffffffffffffffffffffffffffffff168373ffffffffffffffffffffffffffffffffffffffff16036110685760006040517f01a8351400000000000000000000000000000000000000000000000000000000815260040161105f9190612cd4565b60405180910390fd5b6000806110758484611269565b91509150611096856000848460405180602001604052806000815250611299565b5050505050565b600073ffffffffffffffffffffffffffffffffffffffff168473ffffffffffffffffffffffffffffffffffffffff160361110f5760006040517f57f447ce0000000000000000000000000000000000000000000000000000000081526004016111069190612cd4565b60405180910390fd5b60008061111c8585611269565b9150915061112e600087848487611299565b505050505050565b60007fd9b67a26000000000000000000000000000000000000000000000000000000007bffffffffffffffffffffffffffffffffffffffffffffffffffffffff1916827bffffffffffffffffffffffffffffffffffffffffffffffffffffffff1916148061120157507f0e89341c000000000000000000000000000000000000000000000000000000007bffffffffffffffffffffffffffffffffffffffffffffffffffffffff1916827bffffffffffffffffffffffffffffffffffffffffffffffffffffffff1916145b8061121157506112108261134b565b5b9050919050565b6112228282610b7e565b6112655780826040517fe2517d3f00000000000000000000000000000000000000000000000000000000815260040161125c929190612cef565b60405180910390fd5b5050565b60608060405191506001825283602083015260408201905060018152826020820152604081016040529250929050565b6112a5858585856113b5565b600073ffffffffffffffffffffffffffffffffffffffff168473ffffffffffffffffffffffffffffffffffffffff16146113445760006112e3610ed3565b90506001845103611333576000611304600086610fe290919063ffffffff16565b9050600061131c600086610fe290919063ffffffff16565b905061132c838989858589611763565b5050611342565b611341818787878787611917565b5b505b5050505050565b60007f01ffc9a7000000000000000000000000000000000000000000000000000000007bffffffffffffffffffffffffffffffffffffffffffffffffffffffff1916827bffffffffffffffffffffffffffffffffffffffffffffffffffffffff1916149050919050565b80518251146113ff57815181516040517f5b0599910000000000000000000000000000000000000000000000000000000081526004016113f69291906126af565b60405180910390fd5b6000611409610ed3565b905060005b835181101561161e57600061142c8286610fe290919063ffffffff16565b905060006114438386610fe290919063ffffffff16565b9050600073ffffffffffffffffffffffffffffffffffffffff168873ffffffffffffffffffffffffffffffffffffffff161461157057600080600084815260200190815260200160002060008a73ffffffffffffffffffffffffffffffffffffffff1673ffffffffffffffffffffffffffffffffffffffff1681526020019081526020016000205490508181101561151857888183856040517f03dee4c500000000000000000000000000000000000000000000000000000000815260040161150f9493929190612d18565b60405180910390fd5b81810360008085815260200190815260200160002060008b73ffffffffffffffffffffffffffffffffffffffff1673ffffffffffffffffffffffffffffffffffffffff16815260200190815260200160002081905550505b600073ffffffffffffffffffffffffffffffffffffffff168773ffffffffffffffffffffffffffffffffffffffff161461160b578060008084815260200190815260200160002060008973ffffffffffffffffffffffffffffffffffffffff1673ffffffffffffffffffffffffffffffffffffffff168152602001908152602001600020600082825461160391906129a7565b925050819055505b50508061161790612736565b905061140e565b5060018351036116dd57600061163e600085610fe290919063ffffffff16565b90506000611656600085610fe290919063ffffffff16565b90508573ffffffffffffffffffffffffffffffffffffffff168773ffffffffffffffffffffffffffffffffffffffff168473ffffffffffffffffffffffffffffffffffffffff167fc3d58168c5ae7397731d063d5bbf3d657854427343f4c083240f7aacaa2d0f6285856040516116ce9291906126af565b60405180910390a4505061175c565b8373ffffffffffffffffffffffffffffffffffffffff168573ffffffffffffffffffffffffffffffffffffffff168273ffffffffffffffffffffffffffffffffffffffff167f4a39dc06d4c0dbc64b70af90fd698a233a518aa5d07e595d983b8c0526c8f7fb8686604051611753929190612d5d565b60405180910390a45b5050505050565b60008473ffffffffffffffffffffffffffffffffffffffff163b111561190f578373ffffffffffffffffffffffffffffffffffffffff1663f23a6e6187878686866040518663ffffffff1660e01b81526004016117c4959493929190612de9565b6020604051808303816000875af192505050801561180057506040513d601f19601f820116820180604052508101906117fd9190612e58565b60015b611884573d8060008114611830576040519150601f19603f3d011682016040523d82523d6000602084013e611835565b606091505b50600081510361187c57846040517f57f447ce0000000000000000000000000000000000000000000000000000000081526004016118739190612cd4565b60405180910390fd5b805160208201fd5b63f23a6e6160e01b7bffffffffffffffffffffffffffffffffffffffffffffffffffffffff1916817bffffffffffffffffffffffffffffffffffffffffffffffffffffffff19161461190d57846040517f57f447ce0000000000000000000000000000000000000000000000000000000081526004016119049190612cd4565b60405180910390fd5b505b505050505050565b60008473ffffffffffffffffffffffffffffffffffffffff163b1115611ac3578373ffffffffffffffffffffffffffffffffffffffff1663bc197c8187878686866040518663ffffffff1660e01b8152600401611978959493929190612e85565b6020604051808303816000875af19250505080156119b457506040513d601f19601f820116820180604052508101906119b19190612e58565b60015b611a38573d80600081146119e4576040519150601f19603f3d011682016040523d82523d6000602084013e6119e9565b606091505b506000815103611a3057846040517f57f447ce000000000000000000000000000000000000000000000000000000008152600401611a279190612cd4565b60405180910390fd5b805160208201fd5b63bc197c8160e01b7bffffffffffffffffffffffffffffffffffffffffffffffffffffffff1916817bffffffffffffffffffffffffffffffffffffffffffffffffffffffff191614611ac157846040517f57f447ce000000000000000000000000000000000000000000000000000000008152600401611ab89190612cd4565b60405180910390fd5b505b505050505050565b6000604051905090565b600080fd5b600080fd5b600073ffffffffffffffffffffffffffffffffffffffff82169050919050565b6000611b0a82611adf565b9050919050565b611b1a81611aff565b8114611b2557600080fd5b50565b600081359050611b3781611b11565b92915050565b6000819050919050565b611b5081611b3d565b8114611b5b57600080fd5b50565b600081359050611b6d81611b47565b92915050565b60008060408385031215611b8a57611b89611ad5565b5b6000611b9885828601611b28565b9250506020611ba985828601611b5e565b9150509250929050565b611bbc81611b3d565b82525050565b6000602082019050611bd76000830184611bb3565b92915050565b60007fffffffff0000000000000000000000000000000000000000000000000000000082169050919050565b611c1281611bdd565b8114611c1d57600080fd5b50565b600081359050611c2f81611c09565b92915050565b600060208284031215611c4b57611c4a611ad5565b5b6000611c5984828501611c20565b91505092915050565b60008115159050919050565b611c7781611c62565b82525050565b6000602082019050611c926000830184611c6e565b92915050565b600080fd5b600080fd5b600080fd5b60008083601f840112611cbd57611cbc611c98565b5b8235905067ffffffffffffffff811115611cda57611cd9611c9d565b5b602083019150836001820283011115611cf657611cf5611ca2565b5b9250929050565b60008060208385031215611d1457611d13611ad5565b5b600083013567ffffffffffffffff811115611d3257611d31611ada565b5b611d3e85828601611ca7565b92509250509250929050565b600060208284031215611d6057611d5f611ad5565b5b6000611d6e84828501611b5e565b91505092915050565b600081519050919050565b600082825260208201905092915050565b60005b83811015611db1578082015181840152602081019050611d96565b60008484015250505050565b6000601f19601f8301169050919050565b6000611dd982611d77565b611de38185611d82565b9350611df3818560208601611d93565b611dfc81611dbd565b840191505092915050565b60006020820190508181036000830152611e218184611dce565b905092915050565b6000819050919050565b611e3c81611e29565b8114611e4757600080fd5b50565b600081359050611e5981611e33565b92915050565b600060208284031215611e7557611e74611ad5565b5b6000611e8384828501611e4a565b91505092915050565b611e9581611e29565b82525050565b6000602082019050611eb06000830184611e8c565b92915050565b7f4e487b7100000000000000000000000000000000000000000000000000000000600052604160045260246000fd5b611eee82611dbd565b810181811067ffffffffffffffff82111715611f0d57611f0c611eb6565b5b80604052505050565b6000611f20611acb565b9050611f2c8282611ee5565b919050565b600067ffffffffffffffff821115611f4c57611f4b611eb6565b5b602082029050602081019050919050565b6000611f70611f6b84611f31565b611f16565b90508083825260208201905060208402830185811115611f9357611f92611ca2565b5b835b81811015611fbc5780611fa88882611b5e565b845260208401935050602081019050611f95565b5050509392505050565b600082601f830112611fdb57611fda611c98565b5b8135611feb848260208601611f5d565b91505092915050565b600080fd5b600067ffffffffffffffff82111561201457612013611eb6565b5b61201d82611dbd565b9050602081019050919050565b82818337600083830152505050565b600061204c61204784611ff9565b611f16565b90508281526020810184848401111561206857612067611ff4565b5b61207384828561202a565b509392505050565b600082601f8301126120905761208f611c98565b5b81356120a0848260208601612039565b91505092915050565b600080600080600060a086880312156120c5576120c4611ad5565b5b60006120d388828901611b28565b95505060206120e488828901611b28565b945050604086013567ffffffffffffffff81111561210557612104611ada565b5b61211188828901611fc6565b935050606086013567ffffffffffffffff81111561213257612131611ada565b5b61213e88828901611fc6565b925050608086013567ffffffffffffffff81111561215f5761215e611ada565b5b61216b8882890161207b565b9150509295509295909350565b6000806040838503121561218f5761218e611ad5565b5b600061219d85828601611e4a565b92505060206121ae85828601611b28565b9150509250929050565b600067ffffffffffffffff8211156121d3576121d2611eb6565b5b602082029050602081019050919050565b60006121f76121f2846121b8565b611f16565b9050808382526020820190506020840283018581111561221a57612219611ca2565b5b835b81811015612243578061222f8882611b28565b84526020840193505060208101905061221c565b5050509392505050565b600082601f83011261226257612261611c98565b5b81356122728482602086016121e4565b91505092915050565b6000806040838503121561229257612291611ad5565b5b600083013567ffffffffffffffff8111156122b0576122af611ada565b5b6122bc8582860161224d565b925050602083013567ffffffffffffffff8111156122dd576122dc611ada565b5b6122e985828601611fc6565b9150509250929050565b600081519050919050565b600082825260208201905092915050565b6000819050602082019050919050565b61232881611b3d565b82525050565b600061233a838361231f565b60208301905092915050565b6000602082019050919050565b600061235e826122f3565b61236881856122fe565b93506123738361230f565b8060005b838110156123a457815161238b888261232e565b975061239683612346565b925050600181019050612377565b5085935050505092915050565b600060208201905081810360008301526123cb8184612353565b905092915050565b600061ffff82169050919050565b6123ea816123d3565b81146123f557600080fd5b50565b600081359050612407816123e1565b92915050565b60008060006060848603121561242657612425611ad5565b5b600061243486828701611b28565b935050602061244586828701611b5e565b9250506040612456868287016123f8565b9150509250925092565b6000806040838503121561247757612476611ad5565b5b600061248585828601611b5e565b9250506020612496858286016123f8565b9150509250929050565b6124a981611c62565b81146124b457600080fd5b50565b6000813590506124c6816124a0565b92915050565b600080604083850312156124e3576124e2611ad5565b5b60006124f185828601611b28565b9250506020612502858286016124b7565b9150509250929050565b6000806040838503121561252357612522611ad5565b5b600061253185828601611b28565b925050602061254285828601611b28565b9150509250929050565b600080600080600060a0868803121561256857612567611ad5565b5b600061257688828901611b28565b955050602061258788828901611b28565b945050604061259888828901611b5e565b93505060606125a988828901611b5e565b925050608086013567ffffffffffffffff8111156125ca576125c9611ada565b5b6125d68882890161207b565b9150509295509295909350565b7f4e487b7100000000000000000000000000000000000000000000000000000000600052602260045260246000fd5b6000600282049050600182168061262a57607f821691505b60208210810361263d5761263c6125e3565b5b50919050565b7f536f756c626f756e643a206e6f6e2d7472616e7366657261626c650000000000600082015250565b6000612679601b83611d82565b915061268482612643565b602082019050919050565b600060208201905081810360008301526126a88161266c565b9050919050565b60006040820190506126c46000830185611bb3565b6126d16020830184611bb3565b9392505050565b7f4e487b7100000000000000000000000000000000000000000000000000000000600052603260045260246000fd5b7f4e487b7100000000000000000000000000000000000000000000000000000000600052601160045260246000fd5b600061274182611b3d565b91507fffffffffffffffffffffffffffffffffffffffffffffffffffffffffffffffff820361277357612772612707565b5b600182019050919050565b7f4e6f206261646765000000000000000000000000000000000000000000000000600082015250565b60006127b4600883611d82565b91506127bf8261277e565b602082019050919050565b600060208201905081810360008301526127e3816127a7565b9050919050565b600081905092915050565b7f52454d454d4252414e43455f4241444745000000000000000000000000000000600082015250565b600061282b6011836127ea565b9150612836826127f5565b601182019050919050565b6000819050919050565b61285c61285782611b3d565b612841565b82525050565b60008160f01b9050919050565b600061287a82612862565b9050919050565b61289261288d826123d3565b61286f565b82525050565b60006128a38261281e565b91506128af828561284b565b6020820191506128bf8284612881565b6002820191508190509392505050565b7f42616420726563697069656e7400000000000000000000000000000000000000600082015250565b6000612905600d83611d82565b9150612910826128cf565b602082019050919050565b60006020820190508181036000830152612934816128f8565b9050919050565b7f416c726561647920636c61696d65640000000000000000000000000000000000600082015250565b6000612971600f83611d82565b915061297c8261293b565b602082019050919050565b600060208201905081810360008301526129a081612964565b9050919050565b60006129b282611b3d565b91506129bd83611b3d565b92508282019050808211156129d5576129d4612707565b5b92915050565b7f536f756c626f756e643a20617070726f76616c732064697361626c6564000000600082015250565b6000612a11601d83611d82565b9150612a1c826129db565b602082019050919050565b60006020820190508181036000830152612a4081612a04565b9050919050565b60008190508160005260206000209050919050565b60006020601f8301049050919050565b600082821b905092915050565b600060088302612aa97fffffffffffffffffffffffffffffffffffffffffffffffffffffffffffffffff82612a6c565b612ab38683612a6c565b95508019841693508086168417925050509392505050565b6000819050919050565b6000612af0612aeb612ae684611b3d565b612acb565b611b3d565b9050919050565b6000819050919050565b612b0a83612ad5565b612b1e612b1682612af7565b848454612a79565b825550505050565b600090565b612b33612b26565b612b3e818484612b01565b505050565b5b81811015612b6257612b57600082612b2b565b600181019050612b44565b5050565b601f821115612ba757612b7881612a47565b612b8184612a5c565b81016020851015612b90578190505b612ba4612b9c85612a5c565b830182612b43565b50505b505050565b600082821c905092915050565b6000612bca60001984600802612bac565b1980831691505092915050565b6000612be38383612bb9565b9150826002028217905092915050565b612bfc82611d77565b67ffffffffffffffff811115612c1557612c14611eb6565b5b612c1f8254612612565b612c2a828285612b66565b600060209050601f831160018114612c5d5760008415612c4b578287015190505b612c558582612bd7565b865550612cbd565b601f198416612c6b86612a47565b60005b82811015612c9357848901518255600182019150602085019450602081019050612c6e565b86831015612cb05784890151612cac601f891682612bb9565b8355505b6001600288020188555050505b505050505050565b612cce81611aff565b82525050565b6000602082019050612ce96000830184612cc5565b92915050565b6000604082019050612d046000830185612cc5565b612d116020830184611e8c565b9392505050565b6000608082019050612d2d6000830187612cc5565b612d3a6020830186611bb3565b612d476040830185611bb3565b612d546060830184611bb3565b95945050505050565b60006040820190508181036000830152612d778185612353565b90508181036020830152612d8b8184612353565b90509392505050565b600081519050919050565b600082825260208201905092915050565b6000612dbb82612d94565b612dc58185612d9f565b9350612dd5818560208601611d93565b612dde81611dbd565b840191505092915050565b600060a082019050612dfe6000830188612cc5565b612e0b6020830187612cc5565b612e186040830186611bb3565b612e256060830185611bb3565b8181036080830152612e378184612db0565b90509695505050505050565b600081519050612e5281611c09565b92915050565b600060208284031215612e6e57612e6d611ad5565b5b6000612e7c84828501612e43565b91505092915050565b600060a082019050612e9a6000830188612cc5565b612ea76020830187612cc5565b8181036040830152612eb98186612353565b90508181036060830152612ecd8185612353565b90508181036080830152612ee18184612db0565b9050969550505050505056fea26469706673582212205097f3481e1905344651492dcae0730843ec9aef94892583795ac6c25d3ed73c64736f6c63430008140033",
  "linkReferences": {},
  "deployedLinkReferences": {}
}